:0900000002206C9001810202A9AA
:10000B000219DC742F253FF582E43401F583E022DD
:10001B00021814A217921822021CCC3EFEE0FCA37D
:07002B00E02FFFEC3EFE2276
:1000330002231EA8828583F0D083D08212004D1242
:10004300004D12004D12004DE473E493A3C583C524
:10005300F0C583C8C582C8F0A3C583C5F0C583C8EE
:10006300C582C822E709F608DFFA8046E709F208E5
:10007300DFFA803E88828C83E709F0A3DFFA8032BF
:10008300E309F608DFFA8078E309F208DFFA807003
:1000930088828C83E309F0A3DFFA806489828A83F0
:1000A300E0A3F608DFFA805889828A83E0A3F20886
:1000B300DFFA804C80D280FA80C680D4806980F2D7
:1000C3008033801080A680EA809A80A880DA80E25C
:1000D30080CA803389828A83ECFAE493A3C8C582F9
:1000E300C8CCC583CCF0A3C8C582C8CCC583CCDF3C
:1000F300E9DEE7800D89828A83E493A3F608DFF9BA
:10010300ECFAA9F0EDFB2289828A83ECFAE0A3C81A
:10011300C582C8CCC583CCF0A3C8C582C8CCC5836F
:10012300CCDFEADEE880DB89828A83E493A3F208EA
:10013300DFF980CC88F0EF60010E4E60C388F0EDEC
:100143002402B4040050B9F582EB2402B404005035
:10015300AF23234582239000B773BB010689828AAC
:1001630083E0225002E722BBFE02E32289828A83D4
:10017300E49322BB010CE58229F582E5833AF583FA
:10018300E0225006E92582F8E622BBFE06E9258235
:10019300F8E222E58229F582E5833AF583E49322A6
:1001A300BB010FF8E58229F582E5833AF583E02860
:1001B300F0225009C58229F8E58226F622BBFE0902
:1001C300C58229F8E22582F222F8EA2583F583E93C
:1001D300932822BB010689828A83F0225002F722E8
:1001E300BBFE01F322F8BB010DE58229F582E5830D
:1001F3003AF583E8F0225006E92582C8F622BBFED1
:1002030005E92582C8F222A3F8E0C5F025F0F0E560
:1002130082158270021583E0C838F0E822EB9FF55F
:10022300F0EA9E42F0E99D42F0E89C45F022BB01D2
:100233000DE58229F582E5833AF5830202855007AD
:10024300E92582F802030CBBFE07E92582F80203C5
:1002530018E58229F582E5833AF583020324BB017D
:100263000DE58229F582E5833AF583020291500771
:10027300E92582F8020344BBFE07E92582F802035D
:100283005022E0FCA3E0FDA3E0FEA3E0FF22ECF09C
:10029300A3EDF0A3EEF0A3EFF022A42582F582E50F
:1002A300F03583F58322E0FBA3E0FAA3E0F922F81B
:1002B300E0FBA3A3E025F0F9F0E5821582700215B7
:1002C30083E038FAF022EBF0A3EAF0A3E9F022BBD3
:1002D300010789828A830202855005E9F802030C2B
:1002E300BBFE05E9F802031889828A83020324BB53
:1002F300010789828A830202915005E9F8020344C7
:10030300BBFE05E9F802035022E6FC08E6FD08E619
:10031300FE08E6FF22E2FC08E2FD08E2FE08E2FF37
:1003230022E493FC740193FD740293FE740393FF20
:1003330022E493F8740193F9740293FA740393FB20
:1003430022ECF608EDF608EEF608EFF622ECF208DA
:10035300EDF208EEF208EFF222E3F5F009E208B558
:10036300F06BDFF58067E3F5F009E608B5F05EDFD3
:10037300F5805A87F009E608B5F052DFF6804E871C
:10038300F009E208B5F046DFF6804288828C838765
:10039300F009E0A3B5F036DFF6803288828C8387DC
:1003A300F009E493A3B5F025DFF5802188828C83DF
:1003B300E3F5F009E0A3B5F014DFF5801088828C33
:1003C30083E3F5F009E493A3B5F002DFF402048BB1
:1003D300808780E9809080D4803E8015806E807E07
:1003E300809D80B7808D80A380518074803C0204FF
:1003F3009789828A83ECFAE493F5F0A3C8C582C88F
:10040300CCC583CCE493A3C8C582C8CCC583CCB583
:10041300F076DFE3DEE1807089828A83E493F5F08E
:10042300A3E208B5F062DFF4805E89828A83E0F597
:10043300F0A3E608B5F051DFF5804D89828A83E0A9
:10044300F5F0A3E208B5F040DFF5803C89828A83AA
:10045300E493F5F0A3E608B5F02EDFF4802A8002DA
:10046300805789828A83ECFAE493F5F0A3C8C582A6
:10047300C8CCC583CCE0A3C8C582C8CCC583CCB5E2
:10048300F006DFE4DEE280007FFFB5F0020F2240DA
:10049300027F012289828A83ECFAE0F5F0A3C8C5C2
:1004A30082C8CCC583CCE0A3C8C582C8CCC583CCE5
:1004B300B5F0D5DFE5DEE380CF89828A83ECFAE00D
:1004C300F5F0A3C8C582C8CCC583CCE493A3C8C543
:1004D30082C8CCC583CCB5F0AFDFE4DEE280A98867
:1004E300F0EF60010E4E60ABED2402B404005098AF
:1004F300F582EB2402B40400508E2323458223901B
:1005030003D373C5F0F8A3E028F0C5F0F8E582152E
:100513008270021583E038F022F8E0FBA3A3E0F930
:1005230025F0F0E582158270021583E0FA38F02297
:10053300EF4E6012EF60010EEDBB010B89828A83DF
:10054300F0A3DFFCDEFA2289F05007F709DFFCA9EC
:10055300F022BBFEFCF309DFFCA9F022E4F54675AB
:100563004880F54AAF52744B2FF8E690019BF0E0B8
:100573006405703912224B74A712228824D4F582A1
:10058300E43401122278EF122288122291C0E0AFE4
:1005930057EF75F015A42426F9740035F0C8E9C89F
:1005A300FC7D01D0E0F97E007F040205FF90019BF2
:1005B300E06404705E12224B74F612228824D2F592
:1005C30082E43401122278EFF090002612224E7456
:1005D30060F090002712229DE4122288122291C01B
:1005E300E0AF57EF75F015A42428F9740035F0C86F
:1005F300E9C8FC7D01D0E0F97E007F02120137904B
:10060300002A12229D740FF0AF5774622FF87608F8
:100613007F002290019BE0F9C3940750037F0822D7
:1006230012224BAF828583428F4312228924D0F555
:1006330082E43401AF82F5408F410541E541AE408C
:100643007002054014F5828E83E0F53F54E0C41335
:100653005407F5497403C3954950037F0822E549BC
:1006630090286D93F544E54990287593F5456015F9
:100673000543E543AE427002054214F5828E83744E
:10068300A6F0754A01E53F30E4047F0180027F0054
:10069300E53F540FFEBE0F047D0180027D00ED7027
:1006A30017EE90285593FE0543E543AA42700205D1
:1006B3004214F5828A83EEF0EF601F0541E541AAFB
:1006C300407002054014F5828A83E0F53F54F0C47C
:1006D300540F4248E53F540FF546E54660037F0853
:1006E30022ED60340541E541AA407002054014F54E
:1006F300828A83E0F53F7407C3953F50037F082246
:10070300E53F90286593FE0543E543AA4270020541
:100713004214F5828A83EEF0EDFBEF2BFBE433FA10
:10072300E5447583001222A6E5451222A6E546128A
:1007330022A6EB2402FBE43AFAE9C39BEA6480F8BD
:1007430074809850037F082290019BE0C39FC39D50
:10075300C39544C39545C3954624FEF5472545FFF8
:10076300E43312226CE5446009FF122257E5441278
:1007730022ADE5456011FFC3E49F122268AF451225
:100783002257E5451222ADC3E49547122268AF47CD
:10079300122257E5472545FFE433FE7C00EF25444D
:1007A300FFEC3E12226C854382F583E548F012226A
:1007B3004BAF828583428F43E0B4A6080543E543EC
:1007C300700205420543E543AE427002054214F54B
:1007D300828E83E064F67037AA42A9437B01EAC0A4
:1007E300E0E9C0E0E5472543FFE43542FE7C00EF46
:1007F3002545FFEC3EFEEF2544FFEC3EFAC9EFC969
:1008030090019F1202C9D0E0F9D0E0FA121EB7E5B9
:100813004A2547254525442403FFAE5774622EF825
:10082300EFF690019BF0E4FF90002412227FAD824B
:100833008583428D43E4F54990019BE014FEE5492D
:10084300C39E5019854382854283E06F90161893A7
:10085300FF05490543E54370DF054280DB8543829D
:10086300854283EFF07F00229001811202C9752532
:10087300FF1224DD900015120176F524C39407506E
:100883000B900214E0600214F07F0B22E524D39452
:1008930015400B900216E0600214F07F0B22E4F582
:1008A30026E526C395505027E525F47022C2A97486
:1008B300582526F8E654417010E5266557600A85E9
:1008C300262574582526F87640D2A9052680D2E538
:1008D30025F47027C2A9E557F4600E855725AF5755
:1008E30074582FF876407557FFD2A9E525B4FF0B4E
:1008F300900208E0600214F07F0922900184120242
:10090300A9E94A4B70030209F09001841202A9126B
:10091300015DFFD394035003EF701274582525F83B
:10092300E4F6900215E0600214F07F0B2212015DE1
:10093300F5271224E9E4FBFAF9F8C3120220700345
:100943000209F31224E374FFFBFAF9F8C31202203D
:1009530070030209F3E524D39410400B900216E0D0
:10096300600214F07F0B2275F015E5259000241228
:10097300029D74A6F0E52424FAFFE434FFFEC006CA
:10098300C0071224F82425F974001224D6D007D006
:10099300061201371224E390001F1224C21202919F
:1009A3001224DD1224EFFAE924FAF9EA34FFFAC03B
:1009B30002C0011224F82423F9740035F0FA12243A
:1009C300EFA801FC7D01D001D0027F06120137742C
:1009D300052524F524FF75F015E525900022120264
:1009E3009DE5822F1224CEE04480F0801D752703FD
:1009F300AF247E00C006C0071224F82424F9740033
:100A03001224D6D007D00612013790001E1224C23A
:100A13001202858F2B8E2A8D298C28E4FFFE7D8080
:100A23007CFF1224FF50161224F8241EF97400359B
:100A3300F0FA7B011224EFFA122B8680487B007AAE
:100A430000792C1227C8E52F5480FBE52EFAE52DFB
:100A5300F9E52CF8E52B5480FFE52AFEE529FDE5B1
:100A630028FCC3120220700B74FFFFFEFDFC12244E
:100A7300FF701274582525F8E4F6900217E060021F
:100A830014F07F1022748A2525F8A627746C252577
:100A9300F8E4F674762525F8E4F674622525F8A6BD
:100AA3002475F015E5259000221224C7E0FF742F6A
:100AB3002525F582E43401F583EFF074582525F8F4
:100AC300748046F67F00229001811202C99001874B
:100AD300120036FFFFFFFFE4F524E524C3955040E1
:100AE30003020CFAA2AF9208C2AF74582524F8E6A9
:100AF300FFA20892AF5421FEBE2103D38001C3405D
:100B030003020CF5EF30E203020CF530E103020CB3
:100B1300F530180E746C2524F8E6C3954D50030286
:100B23000CF590023FE0600BAF241212F8EF700354
:100B3300020CEA75F015E52490002412029DE0648E
:100B4300A66003020C6712280924F4F525D394093F
:100B530040061228107F062212281A2426F9740050
:100B630035F0FA7B017E00E92525F9EE3AFA78871C
:100B73007C017D017F04120137E5252401FFE43365
:100B8300FEC006C00712281A2425F9740035F0FAAE
:100B93007B01C003C002C001122800A801AC02AD52
:100BA30003D001D002D003D007D006120137122898
:100BB3001A242AF9740035F0FA7B01AF257E00E987
:100BC3002FF9EE3AFAC003C002C001EF2401FFEE91
:100BD30033FE122800E92FF9EA3EA801FCAD03D049
:100BE30001D002D0037E007F0512280624FB1227C2
:100BF300FF900015EF1201E8AF0190018BEAF0A31B
:100C0300EFF0122809FF75F015E524900022120277
:100C13009DE5822FF582E43583F583E030E703D346
:100C23008001C39209E4FFFE12280090001512010F
:100C33007614FDEEC39D501D90018BE475F00130D9
:100C4300090B1228216F90161893FF800512282193
:100C53002FFF0E80D390018BE0FCA3E0F5828C8301
:100C6300EFF0803D122809FF7E00C006C00712285E
:100C73001A2424F9740035F0FA7B01C003C002C0C2
:100C830001122800A801AC02AD03D001D002D003A9
:100C9300D007D0061228061227FF900015EF120185
:100CA300E89001841202A9E94A4B60407439252473
:100CB300F582E43401F583E0FF9001841202A990E8
:100CC3000005EF1201E890018712028590000112DE
:100CD3000261A2AF9208C2AF74802524F8E6120124
:100CE300D6A20892AF800512281080061228107F22
:100CF30000220524020ADD7F062269696969645EB0
:100D030058524C46403A342E2D2DEFB40203020EB6
:100D1300B87003020E9075CE0775D70575BC807544
:100D2300DF0075DE0375C00075C10B75D80075D97A
:100D33000075DA0075DB0075C20175C10E75C2015D
:100D430075C10F75C20175C11175C20175C10A75EF
:100D5300D80175C20175C11275D80475C20175C079
:100D63002475D80575C20175C01C75D80675C201F6
:100D730075C03875C11475D80E75C20175C0247558
:100D8300D80F75C20175C01075C11275D81A75C216
:100D93000175C03075C11475D81B75C20175C000CB
:100DA30075C10C75D83875C20175C10D75C2017551
:100DB300C02875C11475D83C75C20175C00075C1D2
:100DC3000975D83D75C20175C02C75C11475D8A9B4
:100DD30075C20175C00875C10975D84B75D93C75C5
:100DE300DA3C75DB0175C20175C00475D86875D925
:100DF3007075DA6875DB8075C20175C00C75C10149
:100E030075D80075D90075DA0075DB0075C20175F8
:100E1300C01075C20175C00875C11675C20175C0D1
:100E23000C75C20175C00875C11975D80275C20168
:100E330075C11875D8E375D90175C20175C00475FC
:100E4300D82875D90575C20175C11675D80075D92D
:100E53000075DA0675C20175C00875C10175DA003F
:100E630075DB0175C20175C00475C11975D830757C
:100E7300D97075DA5F75DB0C75C20175C10175D860
:100E83000075D90075DA0075DBFC75C20175C00009
:100E930075C11875D80175D90075DA0075DB007551
:100EA300C20175C11975C20175C11675C20175C13B
:100EB3000175C2012275C00475C11775D86A75D949
:100EC3009775DA8A75DB0575C20175C00875D8E0B8
:100ED30075D90075DA0075DB0075C20175C0007540
:100EE300D80175C20122753FFF75402875425885A8
:100EF30050437557FF74582543F542746C2543F5E9
:100F030044154315421544A842E6FF5441700302B9
:100F13000FC5A844E6C3954D500306800BEF30E29E
:100F230007A842E4F6854357A842E654C0FFBFC072
:100F330003D38001C34003020FC874762543F8E648
:100F4300F541A844E6C39541407BE541C39428405D
:100F53000C74762543F8E4F6A844F6F541E541C35D
:100F6300940A500FA844E6C3940A40028039C3741C
:100F73000A803CE541C39414500FA844E6C394147B
:100F830040028023C374148026E541C3941E500F8E
:100F9300A844E6C3941E4002800DC3741E8010A8AB
:100FA30044E6C394284005E4F5418007C3742895BB
:100FB30041F541E541C39540500B85433F85414091
:100FC3008003854357E543D394004003020F04E5B0
:100FD3005014B557037557FFE53FF4700302106CC7
:100FE300300402C322900239E06002C322E540705C
:100FF3000E746C253FF8E6C39428500375400AE548
:101003003F75F015A42424F9740035F0FA7B0174BC
:1010130062253FF8E6FD12000E90019FF0A3E54024
:10102300F0121718EF64016019748A253FF8E6B4CB
:10103300030E12000E540F7007746C253FF8E4F68C
:10104300C322748A253FF816748A253FF8E6700B8D
:101053007458253FF8743F56F6800CAF3F1222B701
:101063007476253FF8A60FD322C3229001C412023F
:10107300C99001C7EDF09001CC7406F0C20EC20F07
:10108300E4FF9001C91202A99001CD1202C91228EE
:10109300C012015DB4A6177440FFD20E9001C5E4DF
:1010A30075F0011205069001C7E014F08004EF44C7
:1010B30020FFE4F5471228C012015DFEE547902AA0
:1010C3009C936E700CE5477002D20FE5474FFF808B
:1010D300070547E547B40BDDE547B40B04EF440FC1
:1010E300FF9001C8E0540F6010EF44101228B19034
:1010F30001C8E0540FC454F0FF1228B2E547640B53
:101103007029F5471228C012015DFFE547902AA711
:10111300936F70109001CD75F00112051CE5471215
:1011230001D680070547E547B408D99001C7E024F5
:10113300FAF5479001C7E0FF24FEFEE547C39E5042
:101143001F1228C0854782758300120176FE900125
:10115300CDE475F00112051CEE1201D6054780D3CC
:10116300300E20EF24F6F5479001C7E024FAFFE59F
:1011730047C39F50071228A2054780EC9001CCE09B
:101183002404F0300F101228C09001C8E0FD12278C
:10119300211228B280299001C7E0FF9001CCE0C35F
:1011A3009F501C7547019001CCE0FF9001C7E0C33D
:1011B3009FFFE547C39F50071228A2054780E7908A
:1011C30001C91202A9CFE9CF9001CD1202A9C3E947
:1011D3009FFF22E4F53FE53FC3955040030212F41D
:1011E3001226A220E0030212EF1226A230E5030228
:1011F30012EF7462253FF8E6F541C39408500A7470
:1012030058253FF8E4F60212EFE4F540E540C395B4
:101213005040030212CE74582540F8E620E0030242
:1012230012C974582540F8E620E5030212C9746C0C
:101233002540F8E6C3954D40030212C97462254068
:10124300F8E5416660030212C9E54124FEF582E434
:1012530034FFF583E53F122696FA7B01C009E5408A
:10126300122696A809FC7D01D009AE83AF82120431
:10127300E2EF7052122666E0F542E53F122668E07F
:10128300F54354F0FFE54254F06F703A20050CE546
:1012930043540FFFE542540F6F702B74802540F8C1
:1012A3000612267DE0D39F401412267DEFF075F0E1
:1012B30015E53F12266BE0FF122666EFF074582502
:1012C3003FF8E4F68005054002120FAD40AF3F1230
:1012D3001B721226A260157458253FF8742046F637
:1012E300900248E030E005AF3F121D74053F021144
:1012F300D95351DF2290018DEFF0E0FF2462F8E62D
:10130300FE75F015EF90001E12029DE5822EF58208
:10131300E43583AF82F5278F28F5831202858F2C5E
:101323008E2B8D2A8C29E4F52690023EE0FFE526DC
:10133300C39F40030213F71228D420E6030213F2DB
:10134300C20A1228D4540714601C1460512402707A
:10135300681228C6AB2CAA2BA92AA829C3120220DB
:101363007059D20A80551228C690018DE0FE75F09F
:10137300151228E1B50704D20A804075F015EE1264
:1013830028E164A670351228C690018DE075F0152A
:1013930090002512029DE06F7021D20A801D122851
:1013A300C690018DE02439F582E43401F583E0C36E
:1013B3009FE49E4006D20A8002D20A300A0E122807
:1013C300D430E704D20A8010C20A800C1228D43029
:1013D300E704C20A8002D20A900240E0FE7006309F
:1013E3000A037F0122EEB40106200A037F002205CF
:1013F3002602132C900240E0B401037F01227F00F8
:1014030022E552C39402400C900213E070030215CC
:101413000E14F0227F3C7E12122A89AD52ED25E094
:101423002453F8A60E08A60F1226E8AE52744E2EC9
:10143300F8A60FAE1AAF1BAD52ED25E024FFF582DF
:10144300E43401F583EEF0A3EFF0E4F5B685B531AE
:10145300E531C39407500FE53164056009E5316454
:1014630004600302150EE531D39416400302150EF2
:10147300AF52EF75F016A424D0F582E43401AF82A5
:10148300FE75B6010FEFAC0E70010E14F5828C835E
:10149300E5B5F0E5312401FDE433FCABB6C3EB9DC8
:1014A300EC6480F874809840DB9001FEE531F0AF86
:1014B30052744B2FF8A6310552900248E030E144B4
:1014C300E5316405703E789FE6F4702DE557F470BE
:1014D30018FFE55014FEEFC39E500E74582FF8E624
:1014E30070048F5780030F80E9789FA657121C2042
:1014F300EF6011789F76FF800B155290021AE0601F
:101503000A14F0229001FDE04552F022900181126D
:1015130002C9122A83C4135407900189F09000036F
:10152300120176FF900188F0E4900187F0EFD394E5
:10153300095011A3E024FBF0E0FF7D01122945903F
:101543000187EFF0900187E06008900189E064076C
:101553007039122A7D541F122A76900015EF12015A
:10156300E8122A7D541FFF7E00E92403F9E43AFAC6
:10157300C003C002C001122A77A801AC02AD03D098
:1015830001D002D003120137021615900187E01231
:101593002A76EF1201D690018A7404F0A37401F045
:1015A300122A7790001574011201E890018C7402DD
:1015B300F090018CE0FDC3940B504C900188E0FF48
:1015C300122945EF6033122A779000157401120136
:1015D300A39001811202A990018AE0F5827583002C
:1015E300120176122A7690018BE0F582758300EF63
:1015F3001201E890018BE004F090018CE004F0907C
:10160300018AE004F080AA122A779000157401126F
:1016130001A37F002200070E091C1B1215383F3659
:101623003124232A2D70777E796C6B6265484F468F
:101633004154535A5DE0E7EEE9FCFBF2F5D8DFD6FF
:10164300D1C4C3CACD90979E998C8B8285A8AFA62F
:10165300A1B4B3BABDC7C0C9CEDBDCD5D2FFF8F1A4
:10166300F6E3E4EDEAB7B0B9BEABACA5A28F8881CF
:101673008693949D9A2720292E3B3C35321F1811BF
:101683001603040D0A5750595E4B4C45426F68616F
:101693006673747D7A898E878095929B9CB1B6BF61
:1016A300B8ADAAA3A4F9FEF7F0E5E2EBECC1C6CF0F
:1016B300C8DDDAD3D4696E676075727B7C51565F7F
:1016C300584D4A4344191E171005020B0C21262FAF
:1016D300283D3A33344E49404752555C5B76717826
:1016E3007F6A6D64633E39303722252C2B0601084F
:1016F3000F1A1D1413AEA9A0A7B2B5BCBB9691983F
:101703009F8A8D8483DED9D0D7C2C5CCCBE6E1E8EE
:10171300EFFAFDF4F390019B1202C990019EEDF0E4
:10172300122961EF600C9001A0E0D3940040037F85
:10173300002275A401E4F5B6122B2460037F002276
:1017430075B4AA75B4AA75B4A975B43C122B2460F8
:10175300037F0022122B2E12015D64A7702B75B438
:1017630005754604754502122B2E85458275830047
:10177300120176F5B40545E545B406EB122B2E9020
:101783000001120176F5B4804790019EE0FDA3E0CD
:101793009001C8F07B017A0179A1A31202C9122B2F
:1017A3002E12106E8F46E54604F5B4E4FFF545E5C9
:1017B30045C39546501874A12545F582E43401F5D7
:1017C30083E0F5B46F90161893FF054580E18FB45D
:1017D300E5462406FD7408FFFE122AF4122B24604A
:1017E300037F002253DC7F30031253DEFBAFD4EFC1
:1017F3005480F5D470F753DEF775A4FFD204909F9D
:101803001EE0F59FA3E0F59E43DE2043DE107F013B
:1018130022C0E0C0F0C083C082C0D075D008A2AFA0
:10182300920BD2AFE5A470030218EBE5A430E72FC7
:1018330075A48075A41075A44075A4207F0C7E093F
:10184300122AC1BF620653DEFB43DE04D2007F3C93
:101853007E12122A89EE30E70653DEFB43DE04E5EF
:10186300A430E44B75A41075B6007F19E5B3C39497
:10187300015006AE0F1FEE70F390018EE5B5F0E058
:10188300D3941640037416F090018EE0FFE5B3D3B2
:101893009F400BAFB3EF2403FDE433FC800A9001B8
:1018A3008EE02401FDE433FC7F007E09122AAFE5BC
:1018B300A430E60675A4401225DEE5A430E00375E6
:1018C300A401E5A430E10375A402E5A430E20375A5
:1018D300A404E5A430E30375A408E5A420E503020A
:1018E300182775A420021827A20B92AFD0D0D0825C
:1018F300D083D0F0D0E0329001811202C990018AE6
:101903001202C912015DFF1228F9541F1201D612E7
:1019130029C9900188EFF064057056900181120285
:10192300A9900015120176FF900187F07E009001C7
:10193300841202A9E92403F9E43AA801FCAD039057
:10194300018A1202A9120137900187E0FF541FFE9A
:101953001228F954E04E1201D6EF2402FFE433FEBD
:101963009001841202A98F828E83E41201E8021986
:10197300D99001897404F09001877402F090018773
:10198300E0FDC3940B5032A3E0FF122945EF60142E
:1019930090018AE475F0011202B212015DFF122870
:1019A300E9EF80041228E9E41201E8900187E004DA
:1019B300F0900189E004F080C41228E9E41201E800
:1019C300900188E024059000031201E81228FF54D7
:1019D300E0440B1201D67F0022C0E0C0F0C083C0F8
:1019E30082C0D075D008A2AF920DD2AFD2159002AB
:1019F3002AE0D394004003E014F0E5FB20E1030266
:101A03001AA975FB02AF1BAE1AAD19AC18EF24016E
:101A1300FFE43EFEE43DFDE43C8F1B8E1A8D19F579
:101A230018C2AF301210789616E6700A900205E0DD
:101A3300600214F0D299D2AF30026B3003437F04BB
:101A43007E111229E0900197120291900197E0FE16
:101A5300A3E0FF900241E0B50E1CA3E0B50F17A36E
:101A6300E004F0E0C3940A401820041553DEFB435E
:101A7300DE04E4F0800B900241EEF0A3EFF0A3E468
:101A8300F0120EE94020E552D394004011121C20BD
:101A93008F3EE53E60109001FC7401F08008E55133
:101AA30030E5031211D6A20D92AFD0D0D082D083ED
:101AB300D0F0D0E0329001811202C9301003021B32
:101AC3006F7B007A0079241226A99001811202A962
:101AD30090023CE0FF04F08F82758300E52412013D
:101AE300E890023DE014601A14603B146050240334
:101AF30070C9E524B4A50890023D7401F080BCE4EC
:101B0300801EE524B45A0890023D7402F080ACE5CF
:101B130024B4A50790023D74018004E490023DF0D3
:101B230090023CF08095E524541F240390023AF080
:101B3300A3E02524F090023D7403F0021ABE900244
:101B43003AE0FF90023CE0B50718E4F0A3F09002FE
:101B53003BE065246005E4F07F0722E490023BF05C
:101B6300FF2290023BE02524F0021ABE7F0622905A
:101B7300022BE07003021C1F90022CE0FAA3E0FB8F
:101B8300900231E02BFB900230E03AFA900232E00F
:101B9300F8A3E02406F582E438F583D3E5829BE5D8
:101BA300839A400F90022CE0FBA3E0900232CBF02B
:101BB300A3EBF074582FF8E67004AE0D8002AE0F5D
:101BC300122A66EEF07476122A62EEF0748A122AF2
:101BD30062EEF074392FF582E43401F583E0122AC2
:101BE30065EEF074622FF8E6FE75F015EF900022B3
:101BF30012029DE5822EF582E43583F583E0122AF5
:101C030065EEF074582FF8E6700C74802DF8E6FF3B
:101C1300122A66EFF022122A667401F0221552E5A9
:101C230057B4FF037F0422AF52744B2FF8E6F964D5
:101C330005603EE4FFAE52EE75F016A424D0F582A3
:101C4300E43401AD82FCE4FEE914FBEEC39B5016C1
:101C53000DEDAA0C70010C14F5828A83E06F9016C7
:101C63001893FF0E80E28D828C83E06F60037F0701
:101C73002212055FEF600122AF5774582FF87601E7
:101C8300AF57746C2FF8E4F6AF5774802FF87601D2
:101C9300AF52744E2FF8E6FFAE5774392EF582E437
:101CA3003401F583EFF0122B14A3E0FFAE57748ACF
:101CB3002EF8A60F122B14FFAE5774762EF8A60F2C
:101CC3004351207557FF7F0022C0E0C0F0C083C09E
:101CD30082C0D075D01030983D85991CC2982010D1
:101CE30008799BE77899666025789BE6062402F5D8
:101CF30082E43400F583E51CF0E6FF7897E6FEEF17
:101D03008EF084789BA6F0C2107895068008900226
:101D130003E0600214F030993AC299789676042071
:101D2300112F789AE60624F6F582E43400F583E071
:101D3300F599E6FF7898E6FEEF8EF084789AA6F0A0
:101D4300789406799AE7789C667002D211D2128051
:101D530002C212E51C6599600D20980A900204E006
:101D6300600214F0D298D0D0D082D083D0F0D0E0EB
:101D73003290019BEFF0E0FF2458F8E630E30302D2
:101D83001E1B74622FF8E6FE75F015EF9000221209
:101D9300029DE5822EF582E43583F583E0F5455413
:101DA3000FF544900249E0B40107E544D394005091
:101DB30067900249E0B40207E544D3940150599077
:101DC300019BE075F015A4241EF9740035F0FA7B2D
:101DD30001E02462F8E67E0029F9EE3AFA122A0DB0
:101DE300EF7035E54554F0FFE544044FFE90019B49
:101DF300E0FF242FF582E43401F583EEF0748A2F9B
:101E0300F876031222B790019BE0FE2476F8A60F22
:101E130074582EF874C046F622EF14603F14605DC8
:101E230024026003021EB190022AE060037F0122B4
:101E33007F087E05122AC1EF30E0037F01227F0471
:101E43007E051229E07B007A057904122A2375D4D2
:101E53000830165D90022A741EF080557B007A04C8
:101E630079107F017E007D007C00122A237F107E83
:101E7300041229E0EF5401FFEF603680F07F0C7EFF
:101E830006122AC1EF54FEFD7F0C7E06122AF47F50
:101E93000C7E06122AC1EF4401FD7F0C7E06122A36
:101EA300F47F107E06122AC1EF30E20580F37F0B28
:101EB300227F002290019C1202C912015DFF900152
:101EC300A2F0E41201D690019F122B7454BF1201A9
:101ED300D690019F122B7444201201D6EF30E708ED
:101EE300122B7144101201D6E4FFFE9001A2E020F0
:101EF300E002802E0FEFB4011390019F122B744464
:101F030010122B6EFDEE9029B193800EEFB4020EEA
:101F1300122B71FDEE9029B993044D1201D6900155
:101F2300A2E0C313F00EEEB407C1EF6401601FEF2C
:101F33006402601A90019F122B7454EF122B6E549B
:101F430010122B6EFEEF9029C1934E1201D62290F0
:101F530001811202C9E4F525E92402F9E43AAF014B
:101F6300789DF608A607120003900002120176542A
:101F73001F2402F5242401FFE433FE7894E6C39F73
:101F8300EE6480F8748098500B900206E0600214AF
:101F9300F07F092274A51201D61200039000017488
:101FA3005A1201E8752602E526C395245019789D37
:101FB3000806E618860670010614F5828E83E0256E
:101FC30025F525052680E0789DE6FE08E6F5828E58
:101FD30083E525F0120003E52404FD1225992290E0
:101FE300000B120176781DF690000C120176781E14
:101FF300F690000D120176781FF6781DE6F5C808F5
:10200300E6F5E8900001120176F5A39000031201B2
:1020130076F5A1900002120176F5BD90000412013D
:1020230076F5BE900005120176F5AB90000712011C
:1020330076F5A9900008120176F5BF90000612010B
:1020430076F5CC900009120176FFF5D3781FE6F5FB
:10205300F890000A120176F5D112015DF5CF8FD306
:10206300E4900239F075AE072275819F122B44026A
:1020730020B0022A39E493A3F8E493A34003F68043
:1020830001F208DFF48029E493A3F85407240CC871
:10209300C333C4540F4420C8834004F4568001461C
:1020A300F6DFE4800B010204081020408090216ECB
:1020B300E47E019360BCA3FF543F30E509541FFE47
:1020C300E493A360010ECF54C025E060A840B8E4B8
:1020D30093A3FAE493A3F8E493A3C8C582C8CAC53B
:1020E30083CAF0A3C8C582C8CAC583CADFE9DEE7CD
:1020F30080BE900143EFF053DCFE7F0C7E06122A74
:10210300C1EF54FEFD7F0C7E06122AF443DC807F70
:1021130002120D0D43D501E5DC54FE4401F5DC90BC
:102123009F22E0FEA3E0FF900143E0FDEFC8EDC86E
:10213300088005CEC313CE13D8F924FFFFEE34FF76
:10214300FEE4FCFDFB7A067908122A237F107E0643
:10215300122AC1EF20E0F57D037F0C7E06122AF4DC
:10216300900244E5D4F0A3E5DDF022C11841023A20
:102173000041023B0041023C0041023D0041023E5E
:10218300004102400041023F004102340041023558
:1021930000410236924202370000C119C1164102C2
:1021A3002A00015200C103C104C101C106C100C11B
:1021B30007C185C1024101FD00C11241024800016E
:1021C3009FFF43012C672222420000040141024386
:1021D300004102490141022B0000900143EFF0A3AB
:1021E300EDF0A3749FF0A3E4F0122B04900143E0FD
:1021F300F550A3E0F54DE4F557F55143DE0143DE19
:1022030002F524E524C39550503B74802524F8E45B
:10221300F6748A2524F8E4F6746C2524F8E4F6743D
:10222300622524F8E4F674582524F8E4F674762538
:1022330024F8E4F674392524F582E43401F583E4C3
:10224300F0052480BED20222900024AF5775F0150A
:10225300EF02029D7E00AA40A9417B01A843AC4244
:102263007D01020137FFE49400FEEF2543F543EEC1
:102273003542F54222F583E0FF900025AE5775F015
:1022830015EE02029DF0AF52EF75F016A42224D092
:10229300F9740135F0FA7B01E922AF5775F015EFB8
:1022A30002029D2BFBE5833AFA222541F541E435F1
:1022B30040F54022AEBA748A2FF8E624FE602D144E
:1022C300703D74582FF8E630E01F742F2FF582E429
:1022D3003401F583E0540FFDEEBD01065407240AD3
:1022E300FF2275F00A84AFF0227F002274582FF882
:1022F300E630E005EE5407801EEE540704FF227417
:10230300582FF8E630E007EE54072415FF22AF0EEE
:10231300EE75F01284E5F02414FF22C0E0C083C000
:1023230082C0D075D008A2AF920CD2AFE5A630E13F
:102333000B75A60290020FE0600214F0E5A630E0F0
:1023430017D20775A60153DEEFAFD4EF5480F5D44F
:1023530070F753DEDF75A603C204300312909F1C8F
:10236300E0F59FA3E0F59E43DE0843DE04800343CC
:10237300DC80A20C92AFD0D0D082D083D0E032A246
:10238300AF9214C2AFA2139203300407A21492AF08
:102393007F162230131C53DC7F1229F7909F1CE019
:1023A300FF8F9F909F1DE0FF8F9E43DE0843DE0457
:1023B300801843DC8053DEFBAFD47E80EF5EFF8F5B
:1023C300D4EF70F453DEF775A4FFA21492AF7F002D
:1023D300229001431202C9900146EDF0F4703912C4
:1023E3002B7A9000011201767897F6900002120181
:1023F300767898F6759852122AD2C212D210D21158
:10240300E4789BF67899F6789CF6789AF67898E6CD
:102413007894F6E47895F622900146E07003122B47
:102423007A2290017B7403F0A312003600000000AF
:102433007B017A017959121AB8EF70357B0190014B
:102443008404F0A37401F0A37443F07A0179591260
:10245300150FEF701C9001847401F0A37401F0A3B5
:10246300747BF07B017A01794312086BEF64096096
:10247300E42212297DEF604675DDFF75D4FF7F00EE
:102483007E061229E0E4FBFAF9F8C3120220601376
:1024930043D50843AD01AFDC43DC2443D50C8FDCCB
:1024A30053D5F753DCFE7F0C7E06122AC1EF54FE90
:1024B300FD7F0C7E06122AF475DD0143D5022275D9
:1024C300F015E52512029DE5822524F582E4358386
:1024D300F5832235F0A801FC7D019001810202A958
:1024E3009001841202A99000010202317E00E925C5
:1024F30024F9EE3A22E52575F015A422AB2BAA2A7E
:10250300A929A828C3020220900246EEF0A3EFF007
:10251300900246E0FEA3E0FF90022CEEF0A3EFF062
:10252300900232EEF0A3EFF090022EEEF0A3EFF064
:10253300A3ECF0A3EDF090022BEBF0CEECCECFEDBD
:10254300CF7DFF900246E0FAA3E0F97B0102053359
:102553009001847401F0A37401F0A3747BF07B01F8
:102563007A017943120ACAEF702B7F0112282B904C
:1025730001847401F0A37401F0A37459F07B017A10
:102583000179431218FAEF700C7B017A0179591221
:102593001F52EF70F4229001841202C9900187ED5B
:1025A300F07894E6C39D500B900206E0600214F0AD
:1025B3007F0922E4F527900187E0FFE527C39F50B9
:1025C300179001841202A985278275830012017670
:1025D300FF122622052780DE7F0022E4F5B6D2060D
:1025E3007D20FCFF7E09122AAF301603021404E497
:1025F300F552121404E4F557E5526022121C20EF41
:10260300701C20040343DC8053DEFBAFD4EF548003
:10261300F5D470F753DEF775A4FF78587621227846
:1026230094E6700B900206E0600214F07F0922A288
:10263300AF9208C2AF789CE624F6F582E43400F545
:1026430083EFF006E6FF7898E6FEEF8EF084789C41
:10265300A6F0201202D299C211789416A20892AF62
:102663007F0022E54075F01590002212029DE5825D
:102673002541F582E43583F583227439253FF582BC
:10268300E43401F583E0FF74392540F582E4340135
:10269300F5832275F015A42424F9740035F022740F
:1026A30058253FF8E6223010037F0422A2AF920898
:1026B300C2AF7899E62402F582E43400F583E01290
:1026C30001D606E6FF7897E6FEEF8EF0847899A6AA
:1026D300F07999E7789B667002D210789516A20874
:1026E30092AF7F00227810EEF9547F7005CF440338
:1026F300780818CFD333CF3350F8FEE8900CFD930E
:10270300FFE930E705EFC3940FFFEE30E7031F1F28
:102713001F30E6011FEFC3942950027F2922E4FFF3
:10272300122B8FFE30E4037480FFED30E41BEEC404
:10273300135407902B34934FFFEE30E019122B8F75
:10274300540EC313902B34800A122B8FC4135407D7
:10275300902B3C934FFF220AF60200000001010177
:1027630001030AD50200000001010101030AA502C9
:1027730002020201010101030AA302000000010198
:102783000101030AA40202020201010101037B0009
:102793007A007924122B86AE26AF27E5252FFFE595
:1027A30024909F1E120026909F1CE0FCA3E02FFFA5
:1027B300EC909F28120026A3E06EFEA3E06FFF12A9
:1027C3002A4ED2AF2275300874322530F582E434B4
:1027D3009FF583E0F4600FE530D3942C5008740424
:1027E3002530F53080E274F82530F5302433FFE4EA
:1027F300349F8F82F5831202850202F2FF900181DA
:102803000202A912013774622524F8E622745825BE
:1028130024F8740446F622E52475F015A422120266
:102823000A85F082F583E022EFC3940B5009781DEB
:10283300E66FF6E6F5C822EFC394C9EF500A24F613
:10284300781E66F6E6F5E8222438781F66F6E6F584
:10285300F822F6D5A5D0D2D4D1303135B3FFFFFF5E
:10286300FFFFC5C6C74032B0B1B20304040600007F
:102873000000000004000000000075F43E75F57FC1
:10288300E5FA549F4440F5FA43FA8043FC0243F9C6
:1028930001E4F51BF51AF519F518D2A9D216229001
:1028A30001C41202A9854782758300120176FF9045
:1028B30001CDE475F00112051CEF0201D69001C4AD
:1028C3000202A975F004E52690011C12029D020282
:1028D3008574182526F582E43401F583E0229000FF
:1028E3002412029DE0229001841202A9900189E042
:1028F300F582758300229001841202A9E92402F96A
:10290300E43AFA02015D7F01120D0D7D647F0A1224
:1029130021DD7B017A01792C7DFF1223D412287DDE
:10292300122791022475E056455253494F4E010038
:10293300040041524144494F544F53455249414C7D
:1029430000E0EF75F00BA4245AF582E43427F583F5
:10295300E5822DF582E43583F583E493FF2220039A
:10296300037F00227F0C7E09122A898E478F48EF4E
:10297300641160037F01227F00227F637E4F7D6E9F
:102983007C4590A044120334C312022070047F01DB
:1029930080027F0022E056455253494F4E02020205
:1029A300094C454F333030304941504900E0200055
:1029B3006040A080E000000006040A080E0000004A
:1029C30000606080A0C0AE07E4FCAF047D01122963
:1029D30045EF6E60050CECB405F0AF0422A2AFC264
:1029E300AF8FC08EC175C20000AFC4AEC5ADC6AC5B
:1029F300C792AF22C206C20075A4FFE4F5A543A5A2
:102A03001043A54043A580D2AB221202D290A0402E
:102A1300120334C312022070047F0180027F00225C
:102A2300A2AFC2AF89C08AC18FD88ED98DDA8CDBB1
:102A330075C20192AF22122909D213122382E4FF35
:102A4300121E1C12255312242580F3CDEFCDCCEE9C
:102A5300CCED4C7003FC7D01ECF5BBEDF5BA222FF8
:102A6300F8E6FE900232E475F00112020A85F08264
:102A7300F58322FF9001840202A99001811202A929
:102A8300900002020176A2AFC2AF8FC08EC175C2A1
:102A93000000AFC4AEC592AF22F6D5A5D0D2D4D133
:102AA300303135B3C5C6C74032B0B1B2A2AFC2AF41
:102AB3008FC08EC18DD88CD975C20192AF22A2AFBF
:102AC300C2AF8FC08EC175C20000AFC492AF22C225
:102AD30099C29875B81085991C78967604D2AC2261
:102AE300E5A430E009EFD3940040037F01227F0087
:102AF30022A2AFC2AF8FC08EC18DD875C20192AF73
:102B030022C20775A6FFC20443A70143A702D2AEA0
:102B130022AF52EF25E024FFF582E43401F583E090
:102B2300229001A0E0FF122AE3EF2290019B020210
:102B3300A902010804201040400003070F1F3F7F34
:102B43007F7F031220F57BFF7A2B7952021FE20766
:102B5300000E0100C003807F0400000000E052412A
:102B630044494F09010D01030000E01201D6900111
:102B73009C1202A902015D9001431202A912015D98
:102B8300F59A2290A0401203240202F2900001025F
:052B93000176A20422FE
:012BFF00E5F0
:00000001FF
