:0A0000000225AA9003830204932254
:10000B000223D674172533F582E43403F583E022FB
:10001B000220D7CDEFCDCCEECCED4C7003FC7D01A7
:07002B00ECF5BBEDF5BA2274
:1000330002293CBB010689828A83E0225002E7221F
:10004300BBFE02E32289828A83E49322BB010CE58F
:100053008229F582E5833AF583E0225006E9258279
:10006300F8E622BBFE06E92582F8E222E58229F5BD
:1000730082E5833AF583E49322F8BB010DE58229F7
:10008300F582E5833AF583E8F0225006E92582C834
:10009300F622BBFE05E92582C8F222BB0110E582E8
:1000A30029F582E5833AF583E0F5F0A3E0225009D0
:1000B300E92582F886F008E622BBFE0AE92582F8E4
:1000C300E2F5F008E222E5832AF583E993F5F0A34C
:1000D300E99322EB9FF5F0EA9E42F0E99D42F0E8B6
:1000E3009C45F022ECF0A3EDF0A3EEF0A3EFF02299
:1000F300E709F608DFFA8046E709F208DFFA803EEF
:1001030088828C83E709F0A3DFFA8032E309F608DB
:10011300DFFA8078E309F208DFFA807088828C8343
:10012300E309F0A3DFFA806489828A83E0A3F608F7
:10013300DFFA805889828A83E0A3F208DFFA804CD1
:1001430080D280FA80C680D4806980F280338010A8
:1001530080A680EA809A80A880DA80E280CA803311
:1001630089828A83ECFAE493A3C8C582C8CCC58389
:10017300CCF0A3C8C582C8CCC583CCDFE9DEE78059
:100183000D89828A83E493A3F608DFF9ECFAA9F0D8
:10019300EDFB2289828A83ECFAE0A3C8C582C8CC2E
:1001A300C583CCF0A3C8C582C8CCC583CCDFEADE47
:1001B300E880DB89828A83E493A3F208DFF980CCA9
:1001C30088F0EF60010E4E60C388F0ED2402B404A2
:1001D3000050B9F582EB2402B4040050AF23234549
:1001E300822390014373BB010689828A83F02250E4
:1001F30002F722BBFE01F322BC000BBE0029EF8DE8
:10020300F084FFADF022E4CCF875F008EF2FFFEE99
:1002130033FEEC33FCEE9DEC984005FCEE9DFE0FA7
:10022300D5F0E9E4CEFD22EDF8F5F0EE8420D21C02
:10023300FEADF075F008EF2FFFED33FD400798504A
:1002430006D5F0F222C398FD0FD5F0EA22C5F0F8E7
:10025300A3E028F0C5F0F8E582158270021583E06B
:1002630038F022A3F8E0C5F025F0F0E5821582709E
:10027300021583E0C838F0E822EF2BFFEE3AFEEDDB
:1002830039FDEC38FC22C3EF9BFFEE9AFEED99FD9E
:10029300EC98FC22E88FF0A4CC8BF0A42CFCE98E24
:1002A300F0A42CFC8AF0EDA42CFCEA8EF0A4CDA8DB
:1002B300F08BF0A42DCC3825F0FDE98FF0A42CCDE4
:1002C30035F0FCEB8EF0A4FEA9F0EB8FF0A4CFC5C4
:1002D300F02ECD39FEE43CFCEAA42DCE35F0FDE44E
:1002E3003CFC2275F008758200EF2FFFEE33FECD44
:1002F30033CDCC33CCC58233C5829BED9AEC99E5E3
:100303008298400CF582EE9BFEED9AFDEC99FC0F72
:10031300D5F0D6E4CEFBE4CDFAE4CCF9A88222B83A
:1003230000C1B90059BA002DEC8BF084CFCECDFCBF
:10033300E5F0CBF97818EF2FFFEE33FEED33FDEC4C
:1003430033FCEB33FB10D703994004EB99FB0FD835
:10035300E5E4F9FA227818EF2FFFEE33FEED33FDD3
:10036300EC33FCC933C910D7059BE99A4007EC9BD2
:10037300FCE99AF90FD8E0E4C9FAE4CCFB2275F062
:1003830010EF2FFFEE33FEED33FDCC33CCC833C873
:1003930010D7079BEC9AE899400AED9BFDEC9AFC79
:1003A300E899F80FD5F0DAE4CDFBE4CCFAE4C8F928
:1003B30022EB9FF5F0EA9E42F0E99D42F0EC648067
:1003C300C864809845F022BB010DE58229F582E5DA
:1003D300833AF58302041E5007E92582F802053E9D
:1003E300BBFE07E92582F802054AE58229F582E585
:1003F300833AF583020556BB010DE58229F582E5B3
:10040300833AF5830200E75007E92582F802059055
:10041300BBFE07E92582F802059C22E0FCA3E0FD70
:10042300A3E0FEA3E0FF22E0F8A3E0F9A3E0FAA330
:10043300E0FB22BB010789828A8302042A5005E973
:10044300F8020566BBFE05E9F802057389828A8313
:10045300020580A8828583F0D083D08212046D12B6
:10046300046D12046D12046DE473E493A3C583C594
:10047300F0C583C8C582C8F0A3C583C5F0C583C8CA
:10048300C582C822A42582F582E5F03583F583224F
:10049300E0FBA3E0FAA3E0F922EBF0A3EAF0A3E97F
:1004A300F0228A838982E473EC8EF0A4CCC5F0CC6D
:1004B300CDF8EFA4CEC5F02DFDE43CFCE8A42EC896
:1004C300C5F03DFDE43CFCEFA4FFE5F028FEE43D70
:1004D300FDE43CFC22EF4E6012EF60010EEDBB0128
:1004E3000B89828A83F0A3DFFCDEFA2289F05007AE
:1004F300F709DFFCA9F022BBFEFCF309DFFCA9F03E
:1005030022BB010789828A8302041E5005E9F8028F
:10051300053EBBFE05E9F802054A89828A83020586
:1005230056BB010789828A830200E75005E9F80276
:100533000590BBFE05E9F802059C22E6FC08E6FDF2
:1005430008E6FE08E6FF22E2FC08E2FD08E2FE08F8
:10055300E2FF22E493FC740193FD740293FE74039F
:1005630093FF22E6FB08E6F908E6FA08E6CBF82251
:10057300E2FB08E2F908E2FA08E2CBF822E493F896
:10058300740193F9740293FA740393FB22ECF60853
:10059300EDF608EEF608EFF622ECF208EDF208EEBF
:1005A300F208EFF222E3F5F009E208B5F06BDFF5AC
:1005B3008067E3F5F009E608B5F05EDFF5805A875A
:1005C300F009E608B5F052DFF6804E87F009E2083D
:1005D300B5F046DFF6804288828C8387F009E0A37A
:1005E300B5F036DFF6803288828C8387F009E49396
:1005F300A3B5F025DFF5802188828C83E3F5F0092C
:10060300E0A3B5F014DFF5801088828C83E3F5F066
:1006130009E493A3B5F002DFF40206D7808780E9EB
:10062300809080D4803E8015806E807E809D80B7D0
:10063300808D80A380518074803C0206E389828A86
:1006430083ECFAE493F5F0A3C8C582C8CCC583CC88
:10065300E493A3C8C582C8CCC583CCB5F076DFE3E9
:10066300DEE1807089828A83E493F5F0A3E208B522
:10067300F062DFF4805E89828A83E0F5F0A3E60806
:10068300B5F051DFF5804D89828A83E0F5F0A3E26E
:1006930008B5F040DFF5803C89828A83E493F5F066
:1006A300A3E608B5F02EDFF4802A80028057898202
:1006B3008A83ECFAE493F5F0A3C8C582C8CCC5835A
:1006C300CCE0A3C8C582C8CCC583CCB5F006DFE4B3
:1006D300DEE280007FFFB5F0020F2240027F01229D
:1006E30089828A83ECFAE0F5F0A3C8C582C8CCC539
:1006F30083CCE0A3C8C582C8CCC583CCB5F0D5DF15
:10070300E5DEE380CF89828A83ECFAE0F5F0A3C8C3
:10071300C582C8CCC583CCE493A3C8C582C8CCC565
:1007230083CCB5F0AFDFE4DEE280A988F0EF6001AF
:100733000E4E60ABED2402B404005098F582EB2416
:1007430002B40400508E232345822390061F73F8BE
:10075300E0FBA3A3E0F925F0F0E582158270021512
:1007630083E0FA38F0226028000000007B000000DC
:100773007A00000079000000780000007700000094
:100783007600000075000000740000007300000094
:10079300720041023D01410028004100290041024D
:1007A3002A0041023B0041023C0060F0002A0000A5
:1007B300000003030303000000000000000000002A
:1007C3000000000000000000000000000000000026
:1007D3000000000000000000000000000000000016
:1007E3000000000000000000000000000000000006
:1007F30000000000000000000000000000000000F6
:1008030000000000000000000000000000000000E5
:1008130000000000000000000000000000000000D5
:1008230000000000000000000000000000000000C5
:1008330000000000000000000000000000000000B5
:1008430000000000000000000000000000000000A5
:100853000000000000000000000000000000000095
:100863000000000000000000000000000000000085
:100873000000000000000000000000000000000075
:100883000000000000000000000000000000000065
:10089300000000000000000000000000000060F005
:1008A300012A00000000030303030000000000000E
:1008B3000000000000000000000000000000000035
:1008C3000000000000000000000000000000000025
:1008D3000000000000000000000000000000000015
:1008E3000000000000000000000000000000000005
:1008F30000000000000000000000000000000000F5
:1009030000000000000000000000000000000000E4
:1009130000000000000000000000000000000000D4
:1009230000000000000000000000000000000000C4
:1009330000000000000000000000000000000000B4
:1009430000000000000000000000000000000000A4
:100953000000000000000000000000000000000094
:100963000000000000000000000000000000000084
:100973000000000000000000000000000000000074
:100983000000000000000000000000000000000064
:10099300000050021A040000FA0064000000000086
:1009A300000000000050022B080000C80064000093
:1009B300000000000000000050011A08000BB800FE
:1009C30064000000000000000000004B032B000047
:1009D30000000000000000000042023E010141034C
:1009E300E6004103E7004103E8924203E90000C146
:1009F3003FC13C4103D800C141011700C12BC12CA9
:100A0300C129C12EC128C12FC1ADC12A410377001D
:100A130042037D0000420001000042037B000041CD
:100A230003F0004103F2004103F100C1424203F528
:100A33000000C13A4103F7004103F8010193FF00AD
:100A4300122E32AF828583488F49E4F541F542F592
:100A53003F1517E51CB4FF037F0422AF17EFC43320
:100A630054E02436F582E43403AF82F5468F47AF72
:100A73001774102FF8E6F540122E3E700205461249
:100A83002E45F520122E3E70020546122E45F52105
:100A930015401540E540D39400401F122E3E7002CE
:100AA3000546122E45F5221540E540D39400400536
:100AB300E4F54380087543028003754301E543145D
:100AC300603914605224026003020B4C300C29205D
:100AD3000D26301023201120A200300101B350183D
:100AE300A204300501B35010A208300901B3500825
:100AF300A214301501B340547F0B22200C03200DA8
:100B0300037F0A22A200300101B35008A20430057A
:100B130001B340387F0B222010032011037F0A22E8
:100B2300300C23200D20A200300101B35018A20481
:100B3300300501B35010A208300901B35008A214C4
:100B4300301501B340067F0B227F0B22A2039204D0
:100B5300A2029203A2019202A20F9201A20E92009C
:100B63000549E549AE487002054814F5828E83E5D0
:100B730020F0053FE54364016053E5202541F5413D
:100B8300E5426520901FD793F542E521C454F0F563
:100B930021A217920CA216920BA215920AA21392EB
:100BA30009A21292080549E549AE487002054814A6
:100BB300F5828E83E521F0053FE5437010E521259D
:100BC30041F541E5426521901FD793F542E540D3B6
:100BD30094004003020A7BE53F94154008122E4C13
:100BE300E4F67F1022122E32E0C4540FF544122E85
:100BF30032E0F545E54915497002154814F582853B
:100C03004883E0F543E54464066018E54464026004
:100C130012E5446401600CE54464056006E545643F
:100C23007F7028E54354F02541F541C4540F254115
:100C3300F541E543540FFFE541540F6F60037F0710
:100C430022431610122E4C76018029E5491549706E
:100C530002154814F582854883E020E709E54165DC
:100C630043600C7F0722E542654360037F0722123E
:100C73002E4C7611AF1C74622FF8E4F6AF1C747619
:100C83002FF87601AF1774132FF8E6FFAE1C74210B
:100C93002EF582E43403F583EFF0AF1C74582FF87C
:100CA300A63F431620751CFF7F0022E4F540E54074
:100CB300C395154003020EE6744E2540F8E620E086
:100CC30003020EE1744E2540F8E630E403020EE120
:100CD30075F015E540900240120487AF8285833E8C
:100CE3008F3FE0FF647F6003020DDD74582540F8F9
:100CF300760BE53F240912273FE4F0E53F24091270
:100D0300273FE0F54112273B12277A240712273F9A
:100D1300122771240812273FEEF0E53F240812271B
:100D23003F122782240512273FE0C454F0FE122706
:100D33003B122771240712273FEEF0E53F240712E9
:100D4300273F122782240412273F12277A240512F1
:100D5300273FE0C4540F4EFE12273BEE12273A12F0
:100D63002782240512273F74FEF0E53F240512274E
:100D73003F12275AA3A3A312277A240412273F1250
:100D83002771240412273FEEF0E53F240412273F86
:100D930012275AA3A3E0C454F0FE12275FA3A3A310
:100DA300E0C4540F4E122747A3E0C454F0FE1227A9
:100DB3005FA3A3E0C4540F4E12275FA3A3F012272F
:100DC3005F122758A3E0C4540FF012275F1227596C
:100DD300743012278A240A020ECEEFC4540FF5434F
:100DE30024FE601424FD7003020E74147003020EBB
:100DF3007424056003020ED8122793B401047F0004
:100E030080027F1012272EE012275DA3A3E0C454B3
:100E1300F0FF12275FA3122766240512273FEFF086
:100E2300E53F240512273F12275AA3E0C454F0FFDD
:100E330012275F122766240412273FEFF0E53F24B1
:100E43000412273F12275AA3E0C4540F122747A3C3
:100E5300A3E4F012275F122758E0540FC454F0A301
:100E6300F012275F12275974F612278A2407020EFD
:100E7300CE122793B405047F2080027F3012272EE1
:100E8300E0F541754205E53F254212273FE58224FF
:100E9300FFF582E58334FFF583E0C454F0FFE53FBB
:100EA300254212273FE0FE122769254212273FEF12
:100EB300F0E53F254212273FE02541F541D542C6E3
:100EC30012275F74F6F012278C2407F582E435832A
:100ED300F583E541F0744E2540F8741046F605405D
:100EE300020CB15316EF2290039E12049C9003A4AC
:100EF300120456FFFFFFFFE4F529E529C3951540CA
:100F03000302111AA2AF9230C2AF744E2529F8E63C
:100F1300FFA23092AF5431FEBE3103D38001C340F0
:100F230003021115EF30E20302111530E103021140
:100F33001530410E74622529F8E6C3951250030259
:100F430011159003F1E0600BAF29121ECBEF700374
:100F530002110A75F015E529900240120487E06436
:100F6300A66003021087122DA224F4F52AD3940954
:100F73004006122DA97F0622122DB32442F97402D2
:100F830035F0FA7B017E00E9252AF9EE3AFA78A4D6
:100F93007C037D017F041201C3E52A2401FFE433AE
:100FA300FEC006C007122DB32441F9740235F0FACE
:100FB3007B01C003C002C001122D99A801AC02AD90
:100FC30003D001D002D003D007D0061201C3122DE3
:100FD300B32446F9740235F0FA7B01AF2A7E00E9A7
:100FE3002FF9EE3AFAC003C002C001EF2401FFEE6D
:100FF30033FE122D99E92FF9EA3EA801FCAD03D087
:1010030001D002D0037E007F05122D9F24FB122DF9
:1010130098900015EF12007CAF019003A8EAF0A3AB
:10102300EFF0122DA2FF75F015E52990023E120490
:1010330087E5822FF582E43583F583E030E703D338
:101043008001C39231E4FFFE122D99900015120026
:101053004F14FDEEC39D501D9003A8E475F00130BD
:10106300310B122DBA6F901FD793FF8005122DBA43
:101073002FFF0E80D39003A8E0FCA3E0F5828C83BE
:10108300EFF0803D122DA2FF7E00C006C007122D97
:10109300B32440F9740235F0FA7B01C003C002C0E7
:1010A30001122D99A801AC02AD03D001D002D003E7
:1010B300D007D006122D9F122D98900015EF120025
:1010C3007C9003A1120493E94A4B604074212529C3
:1010D300F582E43403F583E0FF9003A112049390B7
:1010E3000005EF12007C9003A412041E900001126D
:1010F30003FAA2AF9230C2AF74762529F8E6120143
:10110300E9A23092AF8005122DA98006122DA97F86
:1011130000220529020EFD7F062290037F7401F051
:10112300A3F0900029E0640160030213439003815C
:10113300121C7D7403F0A37498F07A037982120E63
:10114300EAEF6003021343900028E024FE700302D9
:1011530012161470030212CF24026003021343E435
:10116300900381F0900381E0FFC3940F5044EF128A
:101173001B8D121BB47032121BF36004EFB4300EDC
:10118300121BE9121C5D121BDE121BFB8016121CC4
:10119300036005EF6470701A121BE9121C0B121B1B
:1011A300DE121C131213448009900381E004F00241
:1011B300116790037FE064017059121BF36005EF20
:1011C3006430700E121B7A121B6F121BA2121BFBD0
:1011D300801C121C036008EF647060030213431247
:1011E3001B7A121B6F121C0B121BA9121C13121356
:1011F3004490023BE0FFB41E03E4F022EFC39400EB
:101203005003021343EF940F400302134390023B36
:10121300021340E4900381F0900381E0FFC3940F35
:10122300504C121C43121BB4703B121BF36004EFAF
:10123300B4300E121BE9121C1B121BDE121C23807E
:1012430015121C036004EFB47014121BE9121C2B5B
:10125300121BDE121C33121C3B122C088010E4906C
:101263000380F08009900381E004F002121B9003D5
:1012730080E064017056121BF36005EF6430700E5A
:10128300121B51121C1B121BA9121C238019121CA6
:10129300036008EF64706003021343121B51121CB6
:1012A3002B121BA9121C33121C3B122C0890023C5C
:1012B300E0FFB41E03E4F022EFC3940050030213D3
:1012C30043EF940F507A90023C021340121BF360D9
:1012D30005EF6430701E121B7A121B6F121BA212D1
:1012E3001BFB121B4D121C1B121BA9121C23121CCD
:1012F3003B122BCA121C036005EF64707021121B92
:101303007A121B6F121C0B121BA9121C13121B4DFA
:10131300121C2B121BA9121C33121C3B122BCA903A
:10132300023BE0B41E04E4F0800690023BE004F0CC
:1013330090023CE0B41E03E4F02290023CE004F08F
:1013430022F583E4F07F01FE122BCA229003AB1235
:10135300049C9003AEEDF0C234C235E4F53AF53B9C
:10136300122E6FEF600C9003B0E0D3940040037F24
:10137300002275A401E4F5B69003AFE020E703C3B0
:101383008001D3923512303460037F002275B4FAA2
:10139300E5CEB4340B12303460037F002275B4AA57
:1013A30012303460037F002275B4A9E4F539900349
:1013B300AEE0FFE539C39F4003021483EF14B53950
:1013C30005853A2380339003AEE024FEB53906A3A6
:1013D300E0F523800F9003ABE475F001120752127E
:1013E3000036F523203508E523253AF53A800AE54A
:1013F3003A6523901FD793F53A303451A21F9223B5
:10140300A21E9222A21D9221A21DB39220A21C927F
:101413001FA21B921EA21A921DA21AB3921CA219FA
:10142300921BA218921AC219D21812303460037F89
:1014330000228524B49003AEE014B53908E52354A3
:10144300FC4402F523123034602C7F0022752410F3
:10145300A2189226A2199227A21AB39218A21A923C
:1014630019A21B921AA21C921BA21DB3921C12302A
:101473003460037F00228523B4B23405390213B1EB
:101483009003AEE030E012D225C224123034600360
:101493007F0022E524440FF5B49003AEE0FFC313AD
:1014A300FEEF2E2402F53BE5CEB43402053B900358
:1014B300AEE030E002053BAD3B7408FFFE122FD1D6
:1014C30012303460037F0022900379E0FEA3E0FF33
:1014D3004E60098F828E83AF3B1204A953DC7F30A9
:1014E3002B1253DEFBAFD4EF5480F5D470F753DEE9
:1014F300F775A4FFD22C909F1EE0F59FA3E0F59E05
:1015030043DE2043DE107F01229003A01200E73068
:101513003C3EC2A9AF4DAE4CAD4BAC4A8F2C8E2B8B
:101523008D2A8C29D2A9C2A9C3E54D952CFFE54C80
:10153300952BFEE54B952AFDE54A9529122DD4F509
:101543002DD2A9122DDB122DCBC31200D640D722E8
:10155300E4FF122DE1D31200D650030216A7E47F55
:1015630041122DE1C31200D64026E4753041F52F18
:10157300F52EF52D122DDBC3EF9441FFEE9400FE03
:10158300ED9400FDEC9400FC9003A01200E78012A0
:10159300122DDB122DD48C2D9003A01204560000C3
:1015A30000001216AD54FEFD7F0C7E06122FD1E50E
:1015B300DC20E008E5DC54FE4401F5DC7FFF7EFF20
:1015C300122DC8D31200D6402E122DC4D31200D62A
:1015D300E440197B0AFAF9F8AF30AE2FAD2EAC2DEB
:1015E300120322E47BE87A03F9F880067F64FE1293
:1015F3002DC9120297800F122DC4120297E47B0AA1
:10160300FAF9F8120322122DD48C2DC3E53094502D
:10161300FFE52F9400FEE52E9400FDE52D940012C6
:101623002DD4F52D909F22E0FEA3E0FFE4FCFD12F4
:101633002DCB120297E4FB7A08F9F8120322122D3C
:10164300D48C2DE53024FFFFE52F34FFFEE52E3447
:10165300FFFDE52D34FFFC7B007A067908122F523B
:101663007F107E06122F9FEF20E0F575DD01121625
:10167300AD4401FD7F0C7E06122FD175DDFF75D4BD
:10168300FFE5DC54FB4404F5DCC22EC228C22FC2A2
:101693003FC242C23B43DC2043D50453DCDF53DC6F
:1016A300FB0215537F02122D68227F0C7E06122F38
:1016B3009FEF22900029E0600302185390037F12EA
:1016C3001C7D7403F0A37496F07A037980120EEAFA
:1016D300EF600302185390037FF090037FE0FFC392
:1016E300940F4003021799EF121B8D121C509003A5
:1016F30082121BC36003021790900381E064107091
:101703001C121B99121C5DF583E0B4010280441284
:101713001B99121C5DF583E0640302179990038102
:10172300E06430701A121B99121BFBF583E0700200
:101733008045121B99121BFBF583E06403805790CD
:101743000381E06450701D121B99121C0BF583E09A
:10175300B40104E4FF8022121B99121C0BF583E0F1
:1017630064038032900381E06470702A121B991223
:101773001C13F583E070087F01FE122BCA80171239
:101783001B99121C13F583E0B4030B800990037FAC
:10179300E004F00216DDE490037FF090037FE0FFA6
:1017A300C3940F4003021853121C43121C50FF90A2
:1017B3000382121BC4600302184A900381E0641081
:1017C300701A121B99121C1BF583E0B401028041AD
:1017D300121B99121C1BF583E0640322900381E022
:1017E30064307019121B99121C23F583E070028078
:1017F30043121B99121C23F583E064032290038197
:10180300E06450701C121B99121C2BF583E0B40189
:1018130004E4FF8021121B99121C2BF583E064035F
:1018230022900381E064707027121B99121C33F518
:1018330083E070067F01FE022C08121B99121C33F1
:10184300F583E0B4030A2290037FE004F002179EBD
:10185300227533FF75342875364E851537751CFF91
:10186300744E2537F53674622537F5381537153636
:101873001538A836E6FF54417003021930A838E63C
:10188300C39512500306800BEF30E207A836E4F647
:1018930085371CA836E654C0FFBFC003D38001C3FD
:1018A3004003021933746C2537F8E6F535A838E69A
:1018B300C39535407BE535C39428400C746C2537BC
:1018C300F8E4F6A838F6F535E535C3940A500FA8C1
:1018D30038E6C3940A40028039C3740A803CE53574
:1018E300C39414500FA838E6C3941440028023C352
:1018F30074148026E535C3941E500FA838E6C394AC
:101903001E4002800DC3741E8010A838E6C39428BD
:101913004005E4F5358007C374289535F535E5357D
:10192300C39534500B853733853534800385371C95
:10193300E537D39400400302186FE51514B51C0373
:10194300751CFFE533F470030219D7302C02C32250
:101953009003EBE06002C322E534700E746225331A
:10196300F8E6C39428500375340AE53375F015A4DB
:101973002440F9740235F0FA7B0174582533F8E6F4
:10198300FD12000E9003AFF0A3E534F012134FEFF6
:101993006401601974802533F8E6B4030E12000E57
:1019A300540F700774622533F8E4F6C3227480255C
:1019B30033F81674802533F8E6700B744E2533F82C
:1019C300743F56F6800CAF331228D5746C2533F868
:1019D300A60FD322C3225F5F5F5F5F5F5C56504AEF
:1019E300443D37312D2DEFB40203021B1C7003025B
:1019F3001AF475CE3675D70575BC4075C00075C130
:101A03000B75D80075D90075DA0075DB0075C20156
:101A130075C10E75C20175C10F75C20175C111750E
:101A2300C20175C10A75D80175C20175C01475C1AB
:101A33001275D80275C20175C00075C10975D82128
:101A430075C20175C10C75D83875C20175C10D75A4
:101A5300C20175C00875C10975D84B75D93C75DAD3
:101A63003C75DB0175C20175C00475D82875D9585A
:101A730075DA1075DB5875C20175C10175D800752B
:101A8300D90075DA0075DB0075C20175C00875C22F
:101A93000175C00C75C20175C01075C20175C0080F
:101AA30075C11675C20175C00C75C20175C0087584
:101AB300C11975D80275C20175C11875D8E375D9F6
:101AC3000175C20175C00475D82875D90575C201A1
:101AD30075C11675D80075D90075DA0675C201751A
:101AE300C11975D8C075D97175DA5175DB0C75C21A
:101AF3000175C00075C11875D80175D90075DA0074
:101B030075DB0075C20175C11975C20175C1167502
:101B1300C20175C10175C2012275C00475C1177573
:101B2300D8DA75D99675DA8A75DB0975C20175C07D
:101B33000875D8E075D90075DA0075DB0075C20148
:101B430075C00075D80175C20122F583E4F09003D6
:101B530084E0FCA3E0FDA3E0FEA3E0FF90023CE0F1
:101B6300FB75F008A4242AF582E43401F5831200FE
:101B7300E7EB75F008A422900384E0FCA3E0FDA347
:101B8300E0FEA3E0FF90023BE0FB75F008A4242AEB
:101B9300F582E434002290037FE075F008A4222448
:101BA3002EF582E43400F5837401F0EB75F008A49C
:101BB30022F583E0FCA3E0FDA3E0FEA3E090038411
:101BC300FFE0F8A3E0F9A3E0FAA3E0FBC30200D629
:101BD30090037FE0FBA3E0FAA3E022F5837401F016
:101BE300EF75F008A422900381E0FF75F008A422AA
:101BF300900383E0FF641022242FF582E434002253
:101C0300900383E0FF6450222430F582E434002201
:101C13002431F582E4340022242EF582E4340122B7
:101C2300242FF582E43401222430F582E4340122A6
:101C33002431F582E4340122F583E4F07F01FE22AE
:101C4300EF75F008A4242AF582E4340122F583E039
:101C5300FCA3E0FDA3E0FEA3E022242EF582E434FE
:101C63000022F990000F02004F2406F9E43AFA2209
:101C730090037FA3E0FAA3E0F922F07B019003A194
:101C830004F0A322E4F533E533C395154003021DA5
:101C9300A5122BC320E003021DA0122BC330E503C2
:101CA300021DA074582533F8E6F535C39408500A8D
:101CB300744E2533F8E4F6021DA0E4F534E534C38D
:101CC30095154003021D7F744E2534F8E620E0038A
:101CD300021D7A744E2534F8E620E503021D7A745A
:101CE300622534F8E6C395124003021D7A74582521
:101CF30034F8E535666003021D7AE53524FEF58286
:101D0300E434FFF583E533122BB7FA7B01C009E511
:101D130034122BB7A809FC7D01D009AE83AF821220
:101D2300072EEF7052122B87E0F536E533122B891D
:101D3300E0F53754F0FFE53654F06F703A202D0C80
:101D4300E537540FFFE536540F6F702B7476253447
:101D5300F806122B9EE0D39F4014122B9EEFF075D2
:101D6300F015E533122B8CE0FF122B87EFF0744E46
:101D73002533F8E4F680050534021CC0AD34AF33D7
:101D8300123047122BC36015744E2533F874204666
:101D9300F69003F7E030E005AF3312226A05330211
:101DA3001C8A5316DF22E517C39402400C9003C12B
:101DB300E07003021ECA14F0227F3C7E12122F7BB6
:101DC300AD17ED25E02418F8A60E08A60F122CF87F
:101DD300AE1774132EF8A60F85B33EE53E75F003D8
:101DE30084AFF0BF0102153EE53ED39420400302C9
:101DF3001ECAE53EC394065003021ECA122FE1AF6A
:101E030082FEE4F5B60FEFAC0E70010E14F5828C72
:101E130083E5B5F0E5B6C3953E40EA900378E53E29
:101E2300F08F828E83E58224FFF582E58334FFF50C
:101E330083E0B4FF02153EE53EC394125014122F03
:101E4300E1F583E0FEA3E054F064907003EE64A236
:101E53006075AF1774102FF8A63E05179003F7E0CF
:101E630030E15DAF17EFC43354E02416F582E43458
:101E730003F583E0FEA3E054F064D07003EE64A2A4
:101E8300703E7893E6F4702DE51CF47018FFE515A9
:101E930014FEEFC39E500E744E2FF8E670048F1C91
:101EA30080030F80E97893A61C120A43EF60117830
:101EB3009376FF800B15179003C8E0600A14F02295
:101EC300900377E04517F0229003AAEFF0E0FF2498
:101ED30058F8E6FE75F015EF90023A120487E58292
:101EE3002EF582E43583AF82F52C8F2DF583120412
:101EF3001E8F318E308D2F8C2EE4F52B9003F0E066
:101F0300FFE52BC39F4003021FCA122E1D20E603C9
:101F1300021FC5C232122E1D540714601C146051D7
:101F230024027068122E0FAB31AA30A92FA82EC33A
:101F33001200D67059D2328055122E0F9003AAE0A8
:101F4300FE75F015122E2AB50704D232804075F0C3
:101F530015EE122E2A64A67035122E0F9003AAE0F6
:101F630075F015900241120487E06F7021D2328020
:101F73001D122E0F9003AAE02421F582E43403F509
:101F830083E0C39FE49E4006D2328002D2323032D5
:101F93000E122E1D30E704D2328010C232800C1292
:101FA3002E1D30E704C2328002D2329003F2E0FEEB
:101FB30070063032037F0122EEB401062032037F24
:101FC3000022052B021EFF9003F2E0B401037F0100
:101FD300227F002200070E091C1B1215383F3631E1
:101FE30024232A2D70777E796C6B6265484F4641B6
:101FF30054535A5DE0E7EEE9FCFBF2F5D8DFD6D1A6
:10200300C4C3CACD90979E998C8B8285A8AFA6A195
:10201300B4B3BABDC7C0C9CEDBDCD5D2FFF8F1F685
:10202300E3E4EDEAB7B0B9BEABACA5A28F88818675
:1020330093949D9A2720292E3B3C35321F18111665
:1020430003040D0A5750595E4B4C45426F68616655
:1020530073747D7A898E878095929B9CB1B6BFB845
:10206300ADAAA3A4F9FEF7F0E5E2EBECC1C6CFC835
:10207300DDDAD3D4696E676075727B7C51565F5825
:102083004D4A4344191E171005020B0C21262F2815
:102093003D3A33344E49404752555C5B7671787F05
:1020A3006A6D64633E39303722252C2B0601080FF5
:1020B3001A1D1413AEA9A0A7B2B5BCBB9691989FE5
:1020C3008A8D8483DED9D0D7C2C5CCCBE6E1E8EFD5
:1020D300FAFDF4F3C0E0C0F0C083C082C0D075D075
:1020E30008A2AF9236D2AFE5A47003022194E5A40F
:1020F30030E75D75A48075A41075A44075A4207F96
:102103000C7E09122F9FBF620653DEFB43DE04D20F
:102113002875C00875C10275D80075D90075DA0035
:1021230075DBFC75C20175C00C75D80175DB0075D4
:10213300C20175C00075C20175C00875D80075C2AB
:102143000175C00C75C20175C00075D80175C20157
:10215300E5A430E40375A410E5A430E60375A440B8
:10216300E5A430E00375A401E5A430E10375A402FE
:10217300E5A430E20375A404E5A430E30375A408E1
:10218300E5A420E5030220EA75A420122CBD022059
:10219300EAA23692AFD0D0D082D083D0F0D0E03252
:1021A30090037FEBF0A3EAF0A3E9F0120036FF7B84
:1021B300017A0379821229A0121BD3F9900001122C
:1021C300004FFF900382E0B507047F0180027F0088
:1021D300900382EFF0E0FFC007E9121C6C12286D38
:1021E300BF01047E0280027E00D0E04E900382F0A5
:1021F300121BD3121C6525E025E02462F582E4342A
:102203002CF583C083C082900382E0D082D08325E3
:1022130082F582E43583F583E493FF90000FEF1298
:10222300007C121C6624FB601624047032121BD33C
:10223300121C6CC002C001121C73900002801012A9
:102243001BD3121C6CC002C001121C739000041239
:10225300009EFFAEF0E4FCFDD001D002122C8212EE
:102263001BD3121C65FF229003ABEFF0E0FF244E5B
:10227300F8E630E30302232674582FF8E6FE75F0E0
:1022830015EF90023E120487E5822EF582E4358332
:10229300F583E0F539540FF5389003F8E0B40107FE
:1022A300E538D39400507C9003F8E0B40207E53896
:1022B300D39401506E9003ABE075F015A4243AF962
:1022C300740235F0FA7B01E02458F8E67E0029F920
:1022D300EE3AFA122F3CEF704A90037BE0FEA3E044
:1022E300FF4E600AAA0EA90F1204A5EF7035E53957
:1022F30054F0FFE538044FFE9003ABE0FF2417F5DD
:1023030082E43403F583EEF074802FF87603122809
:10231300D59003ABE0FE246CF8A60F744E2EF87430
:10232300C046F6227B017A02791A1221A3EF6403D5
:10233300704290023DE0B4010F7D011223C9900069
:10234300297401F0900028F090023DE0B40207E404
:10235300FD12239E04F090023DE0B403087D0112B8
:10236300239E7403F090023DE004F0E0D394034015
:10237300037401F07B017A02792B1221A3BF0308B6
:10238300E4FD1223C91223B47B017A01791A1221C5
:10239300A3BF03061223B4120009227F021229FDF0
:1023A3007D017F011229FD9000297401F09000281E
:1023B30022E4900029F090023D04F0900028F0E41C
:1023C300FFFE122C08227F021229FDE4FD7F011279
:1023D30029FD22C0E0C0F0C083C082C0D075D00800
:1023E300A2AF9233D2AFD23B9003D8E0D394004054
:1023F30003E014F0E5FB30E17A90037DE0FEA3E017
:10240300FF4E6007AA0EA90F1204A575FB02AF4D7C
:10241300AE4CAD4BAC4AEF2401FFE43EFEE43DFD80
:10242300E43C8F4D8E4C8D4BF54AC2AF303A107859
:102433008C16E6700A9003B3E0600214F0D299D2CE
:10244300AF302A2F121854402AE517D394004011B5
:10245300120A438F32E532601A9003767401F080DA
:1024630012E51630E405120CAE8008E51630E503DC
:10247300121C87A23392AFD0D0D082D083D0F0D0B9
:10248300E032EF14603F14605D2402600302251AFA
:102493009003D8E060037F01227F087E05122F9FFF
:1024A300EF30E0037F01227F047E05122F257B009E
:1024B3007A057904122F5275D408303C5D9003D805
:1024C300741EF080557B007A0479107F017E007DB5
:1024D300007C00122F527F107E04122F25EF54012F
:1024E300FFEF603680F07F0C7E06122F9FEF54FEC5
:1024F300FD7F0C7E06122FD17F0C7E06122F9FEFDD
:102503004401FD7F0C7E06122FD17F107E06122F11
:102513009FEF30E20580F37F0B227F002290000BB8
:1025230012004F781DF690000C12004F781EF690A3
:10253300000D12004F781FF6781DE6F5C808E6F582
:10254300E890000112004FF5A390000312004FF52D
:10255300A190000212004FF5BD90000412004FF548
:10256300BE90000512004FF5AB90000712004FF527
:10257300A990000812004FF5BF90000612004FF516
:10258300CC90000912004FFFF5D3781FE6F5F890C1
:10259300000A12004FF5D1120036F5CF8FD3E49025
:1025A30003EBF075AE0722758193122FF00225EE2F
:1025B300022F0DE493A3F8E493A34003F68001F202
:1025C30008DFF48029E493A3F85407240CC8C33329
:1025D300C4540F4420C8834004F456800146F6DFF8
:1025E300E4800B0102040810204080900769E47E18
:1025F300019360BCA3FF543F30E509541FFEE493ED
:10260300A360010ECF54C025E060A840B8E493A3B3
:10261300FAE493A3F8E493A3C8C582C8CAC583CADE
:10262300F0A3C8C582C8CAC583CADFE9DEE780BE96
:10263300C0D075D0089003E2E004F0E0707190031D
:10264300E0E475F001120266FED39003E5E095F035
:102653009003E4E09E5058E49003E0F0A3F090036D
:10266300E3E014FF9003DFE0B50F04E4F08006908D
:1026730003DFE004F09003D912041EC00CC00DC0A8
:102683000EC00F12301AE0FF7E007C087D98120402
:10269300ABA80CA90DAA0EAB0FD00FD00ED00DD046
:1026A3000C1202899003D91200E712301AE4F0D019
:1026B300D02290037FEFF053DCFE7F0C7E06122FB7
:1026C3009FEF54FEFD7F0C7E06122FD143DC807FEB
:1026D300021219E943D501E5DC54FE4401F5DC900F
:1026E3009F22E0FEA3E0FF90037FE0FDEFC8EDC86B
:1026F300088005CEC313CE13D8F924FFFFEE34FFB1
:10270300FEE4FCFDFB7A067908122F527F107E0649
:10271300122F9FEF20E0F57D037F0C7E06122FD151
:102723009003F3E5D4F0A3E5DDF022E53F2406F5BD
:1027330082E4353EF583EFF0E53F2406F582E43588
:102743003EF58322853F82853E83A3A3A3F0853F85
:1027530082853E83A3A3A3E02541F541853F82857E
:102763003E8322A3A3E0C4540F4FFFE53F22E0C4FE
:10277300540F4EFEE53F22E0C454F0FEE53F22E055
:102783002541F541E53F22F0E02541F541E582226F
:1027930074582540F87608E543229003ECEEF0A345
:1027A300EFF0E4A3F0A3F09003EEF0A3F09003ECBA
:1027B300E0FEA3E0FFC39003EFE09FEE6480F89098
:1027C30003EEE06480985028E4FD7F021229FDE4C3
:1027D300FD1227F47D017F021229FD7D011227F4EA
:1027E3009003EFE004F070C59003EEE004F080BDC9
:1027F300227F011229FD7FC87E007D007C00121517
:102803000C2290037FEFF0A3EDF0A3749FF0A3E4F9
:10281300F0122FC190037FE0F515A3E0F512E4F564
:102823001CF516F529E529C39515503B7476252922
:10283300F8E4F674802529F8E4F674622529F8E4AF
:10284300F674582529F8E4F6744E2529F8E4F6744D
:102853006C2529F8E4F674212529F582E43403F57F
:1028630083E4F0052980BED22A2290038312049CBC
:1028730090000812004FFEC31330E0037F0122EEE5
:1028830020E0037F00227B007A007929122F8E1229
:1028930000039000041203CA120003120436C3E5B6
:1028A3002C9BFBE52B9AFAE52A99F9E52998F8C3BD
:1028B3001200D6401A120003E92408F9E43AFA1286
:1028C300003644021201E954FE1201E97F01227F1E
:1028D3000022AEBA74802FF8E624FE602D14703DFA
:1028E300744E2FF8E630E01F74172FF582E434039B
:1028F300F583E0540FFDEEBD01065407240AFF22C1
:1029030075F00A84AFF0227F0022744E2FF8E63070
:10291300E005EE5407801EEE540704FF22744E2F89
:10292300F8E630E007EE54072415FF22AF0EEE75EC
:10293300F01284E5F02414FF22C0E0C083C082C0FB
:10294300D075D008A2AF9237D2AFE5A630E10B75B0
:10295300A6029003BDE0600214F0E5A630E017D2B2
:102963002F75A60153DEEFAFD4EF5480F5D470F783
:1029730053DEDF75A603C22C302B12909F1CE0F5AB
:102983009FA3E0F59E43DE0843DE04800343DC801F
:10299300A23792AFD0D0D082D083D0E032EFC394AD
:1029A3000B5016E5A15F6008781DE65F6047804124
:1029B300E5C85F6002803A803CEFC394C9501B7442
:1029C300F62FFF55A9600A781EE65F600280228019
:1029D30024E5E85F60028019801B74382FFF55D10E
:1029E300600A781FE65F600280078009E5F85F6090
:1029F3000474018001E41201E922EFC3940B501621
:102A0300ED6007781DE64FF68006EFF4781D56F665
:102A1300781DE6F5C822EFC394C9501A74F62FFF48
:102A2300ED6007781EE64FF68006EFF4781E56F643
:102A3300781EE6F5E82274382FFFED6007781FE66D
:102A43004FF68006EFF4781F56F6781FE6F5F82266
:102A5300A2AF923EC2AFA23D922B302C07A23E9270
:102A6300AF7F1622303D1C53DC7F122F68909F1CD2
:102A7300E0FF8F9F909F1DE0FF8F9E43DE0843DEA4
:102A830004801843DC8053DEFBAFD47E80EF5EFF0F
:102A93008FD4EF70F453DEF775A4FFA23E92AF7F9D
:102AA3000022C0D075D008EFFD9003DDE48DF01255
:102AB30002509003D912042AE4FCFDFE12027C901A
:102AC30003D91200E79003DDE0FEA3E0FFE4FCFD81
:102AD3007B987A08F9F8D31203B450119003DD748C
:102AE300F775F06812025012301AE004F0D0D022C9
:102AF300122EA6EF604675DDFF75D4FF7F007E06BC
:102B0300122F25E4FBFAF9F8C31200D6601343D55C
:102B13000843AD01AFDC43DC2443D50C8FDC53D534
:102B2300F753DCFE7F0C7E06122F9FEF54FEFD7FD2
:102B33000C7E06122FD175DD0143D502229003E3EB
:102B4300EFF024FFFDE434FFFC7E367FEE1201FB41
:102B5300A3EEF0A3EFF07E007F0A7D007B017A03F2
:102B630079D91204D8900379742AF0A374A5F0904C
:102B7300037D7426F0A37433F090037B742EF0A3CB
:102B8300748BF022E53475F01590023E120487E54C
:102B9300822535F582E43583F5832274212533F5C7
:102BA30082E43403F583E0FF74212534F582E434B1
:102BB30003F5832275F015A42440F9740235F0223D
:102BC300744E2533F8E62290039EEEF0A3EFF01245
:102BD3002BE3122BE390039EA3E0FD7F020229FD6A
:102BE3007D017F021229FD7F647E007D007C00123F
:102BF300150CE4FD7F021229FD7F647E007D007CBD
:102C03000012150C2290039EEEF0A3EFF0122C217C
:102C1300122C2190039EA3E0FD7F010229FD7D017B
:102C23007F011229FD7F647E007D007C0012150C5C
:102C3300E4FD7F011229FD7F647E007D007C00128C
:102C4300150C22E056455253494F4E0100040041F2
:102C5300524144494F544F53455249414C00E000BF
:102C6300010001050205010502050305040504052C
:102C7300040504060100010601070100010001909B
:102C8300038312049C9003861200E79003831204CB
:102C930093122F8E90038612041E900383120493C3
:102CA3009000041203FAE92408F9E43AFA12003610
:102CB30044011201E954FD0201E9D22E303C030222
:102CC3001DA9E4F517121DA9E4F51CE517602512EB
:102CD3000A43EF701F202C0343DC8053DEFBAFD489
:102CE300EF5480F5D470F753DEF775A4FF120CAEE2
:102CF300784E7631227810EEF9547F7005CF440375
:102D0300780818CFD333CF3350F8FEE89019D9930E
:102D1300FFE930E705EFC3940FFFEE30E7031F1F12
:102D23001F30E6011FEFC3942950027F29227B0045
:102D33007A00792912303EAE2BAF2CE52A2FFFE51E
:102D430029909F1E123028909F1CE0FCA3E02FFFC8
:102D5300EC909F28123028A3E06EFEA3E06FFF12D1
:102D6300001ED2AF22EF24FE600B04702253DCFD61
:102D730075DD02801D7F0C7E06122F9FEF54FEFD32
:102D83007F0C7E06122FD153DCFE75DD0180037F9D
:102D93000B227F0022FF90039E0204931201C3744F
:102DA300582529F8E622744E2529F8740446F6229C
:102DB300E52975F015A42212026685F082F583E0F9
:102DC300227FE87E03E4FDFCAB30AA2FA92EA82DB9
:102DD300228F308E2F8D2E229003A002041EFEFD23
:102DE300FC9003A002042A75F43E75F57FE5FA54BE
:102DF3009F4440F5FA43FA8043FC0243F901E4F5AA
:102E03004DF54CF54BF54AD2A9D23C2275F004E5B9
:102E13002B90031312048702041E7412252BF582D0
:102E2300E43403F583E022900240120487E022AFEA
:102E33001C75F015EF9002400204870547E547AE85
:102E4300462214F5828E83E022AF1C744E2FF822A3
:102E530053AFFB0075AE04EF4E60099003F5EEF03F
:102E6300A3EFF022E49003F5F0A3F022202B037FDD
:102E730000227F0C7E09122F7B8E3C8F3DEF641165
:102E830060037F01227F00227F447E957D087C00C2
:102E93009003D912042AD31200D640047F01800282
:102EA3007F00227F637E4F7D6E7C4590A044120598
:102EB30080C31200D670047F0180027F00227F014D
:102EC3001219E97D647F0A1228057F0B122B401229
:102ED3002DEA122D31022AF3E056455253494F4E43
:102EE300020500004C454F33303030494150490012
:102EF300E0EF60119003F5E07002A3E0600775AEA8
:102F03000443AF042253AFFB0022122EC1D23D1261
:102F13002A53E4FF12248512232712111D1216B619
:102F230080F0A2AFC2AF8FC08EC175C20000AFC424
:102F3300AEC5ADC6ACC792AF2212050490A0401235
:102F43000580C31200D670047F0180027F0022A295
:102F5300AFC2AF89C08AC18FD88ED98DDA8CDB75A9
:102F6300C20192AF22C22EC22875A4FFE4F5A54385
:102F7300A52043A580D2AB22A2AFC2AF8FC08EC122
:102F830075C20000AFC4AEC592AF22C2A900AF4D57
:102F9300AE4CAD4BAC4A120524D2A922A2AFC2AFAC
:102FA3008FC08EC175C20000AFC492AF22E5A430BA
:102FB300E009EFD3940040037F01227F0022C22F58
:102FC30075A6FFC22C43A70143A702D2AE22A2AF2C
:102FD300C2AF8FC08EC18DD875C20192AF22AF1719
:102FE300EFC43354E02436F582E43403227F031222
:102FF30026B57BFF7A2F79FE02252007000C0300FC
:10300300000300FF0400000000E0524144494F0860
:10301300013301030000E09003DFE0242BF582E499
:103023003403F583223EFEE0FCA3E02FFFEC3EFEDB
:10303300229003B0E0FF122FB0EF2290A0401205C0
:10304300560205249003ABEFF0A3EDF022A24092C9
:053053004122A22C2225
:0130FF004A86
:00000001FF
