:09000000021F109001810202C2EE
:10000B00021CBE742F2543F582E43401F583E022F4
:10001B00021A90A23F924022021C163EFEE0FCA365
:07002B00E02FFFEC3EFE2276
:10003300022267A8828583F0D083D08212004D12FA
:10004300004D12004D12004DE473E493A3C583C524
:10005300F0C583C8C582C8F0A3C583C5F0C583C8EE
:10006300C582C822E709F608DFFA8046E709F208E5
:10007300DFFA803E88828C83E709F0A3DFFA8032BF
:10008300E309F608DFFA8078E309F208DFFA807003
:1000930088828C83E309F0A3DFFA806489828A83F0
:1000A300E0A3F608DFFA805889828A83E0A3F20886
:1000B300DFFA804C80D280FA80C680D4806980F2D7
:1000C3008033801080A680EA809A80A880DA80E25C
:1000D30080CA803389828A83ECFAE493A3C8C582F9
:1000E300C8CCC583CCF0A3C8C582C8CCC583CCDF3C
:1000F300E9DEE7800D89828A83E493A3F608DFF9BA
:10010300ECFAA9F0EDFB2289828A83ECFAE0A3C81A
:10011300C582C8CCC583CCF0A3C8C582C8CCC5836F
:10012300CCDFEADEE880DB89828A83E493A3F208EA
:10013300DFF980CC88F0EF60010E4E60C388F0EDEC
:100143002402B4040050B9F582EB2402B404005035
:10015300AF23234582239000B773BB010689828AAC
:1001630083E0225002E722BBFE02E32289828A83D4
:10017300E49322BB010CE58229F582E5833AF583FA
:10018300E0225006E92582F8E622BBFE06E9258235
:10019300F8E222E58229F582E5833AF583E49322A6
:1001A300BB010FF8E58229F582E5833AF583E02860
:1001B300F0225009C58229F8E58226F622BBFE0902
:1001C300C58229F8E22582F222F8EA2583F583E93C
:1001D300932822BB010689828A83F0225002F722E8
:1001E300BBFE01F322F8BB010DE58229F582E5830D
:1001F3003AF583E8F0225006E92582C8F622BBFED1
:1002030005E92582C8F222A3F8E0C5F025F0F0E560
:1002130082158270021583E0C838F0E822EF2BFFC5
:10022300EE3AFEED39FDEC38FC22EB9FF5F0EA9E49
:1002330042F0E99D42F0E89C45F022BB010DE582C6
:1002430029F582E5833AF5830202925007E9258274
:10025300F8020333BBFE07E92582F802033FE58278
:1002630029F582E5833AF58302034BBB010DE58251
:1002730029F582E5833AF5830202AA5007E925822C
:10028300F802036BBBFE07E92582F802037722E03D
:10029300FCA3E0FDA3E0FEA3E0FF22E0F8A3E0F966
:1002A300A3E0FAA3E0FB22ECF0A3EDF0A3EEF0A3AE
:1002B300EFF022A42582F582E5F03583F58322E071
:1002C300FBA3E0FAA3E0F922F8E0FBA3A3E025F007
:1002D300F9F0E582158270021583E038FAF022EB1B
:1002E300F0A3EAF0A3E9F022C3EF9BFFEE9AFEED41
:1002F30099FDEC98FC22BB010789828A8302029252
:100303005005E9F8020333BBFE05E9F802033F8910
:10031300828A8302034BBB010789828A830202AA72
:100323005005E9F802036BBBFE05E9F802037722E7
:10033300E6FC08E6FD08E6FE08E6FF22E2FC08E22A
:10034300FD08E2FE08E2FF22E493FC740193FD74CE
:100353000293FE740393FF22E493F8740193F974F8
:100363000293FA740393FB22ECF608EDF608EEF61B
:1003730008EFF622ECF208EDF208EEF208EFF222B3
:10038300EC8EF0A4CCC5F0CCCDF8EFA4CEC5F02D07
:10039300FDE43CFCE8A42EC8C5F03DFDE43CFCEFC5
:1003A300A4FFE5F028FEE43DFDE43CFC22E3F5F088
:1003B30009E208B5F06BDFF58067E3F5F009E608BD
:1003C300B5F05EDFF5805A87F009E608B5F052DF35
:1003D300F6804E87F009E208B5F046DFF6804288E2
:1003E300828C8387F009E0A3B5F036DFF68032888C
:1003F300828C8387F009E493A3B5F025DFF5802190
:1004030088828C83E3F5F009E0A3B5F014DFF5806F
:100413001088828C83E3F5F009E493A3B5F002DF3F
:10042300F40204DF808780E9809080D4803E8015C9
:10043300806E807E809D80B7808D80A38051807484
:10044300803C0204EB89828A83ECFAE493F5F0A3FF
:10045300C8C582C8CCC583CCE493A3C8C582C8CC25
:10046300C583CCB5F076DFE3DEE1807089828A83D1
:10047300E493F5F0A3E208B5F062DFF4805E8982CD
:100483008A83E0F5F0A3E608B5F051DFF5804D89E6
:10049300828A83E0F5F0A3E208B5F040DFF5803C03
:1004A30089828A83E493F5F0A3E608B5F02EDFF49E
:1004B300802A8002805789828A83ECFAE493F5F0DC
:1004C300A3C8C582C8CCC583CCE0A3C8C582C8CCA9
:1004D300C583CCB5F006DFE4DEE280007FFFB5F034
:1004E300020F2240027F012289828A83ECFAE0F51F
:1004F300F0A3C8C582C8CCC583CCE0A3C8C582C855
:10050300CCC583CCB5F0D5DFE5DEE380CF89828A25
:1005130083ECFAE0F5F0A3C8C582C8CCC583CCE46C
:1005230093A3C8C582C8CCC583CCB5F0AFDFE4DEE6
:10053300E280A988F0EF60010E4E60ABED2402B4B7
:1005430004005098F582EB2402B40400508E232358
:1005530045822390042773F8E0FBA3A3E0F925F079
:10056300F0E582158270021583E0FA38F0229001DB
:10057300811202E2752AFF122426900015120176D9
:10058300F529C39407500B9001E8E0600214F07F53
:100593000B22E529D39415400B9001EAE060021485
:1005A300F07F0B22C2A9E52975F009A4FFE5F0C38A
:1005B30013FEEF132404FFE43EFEE4FCFD9002006F
:1005C30012029E1202207B447A9579087800C312A6
:1005D300022D5005D2A97F1622D2A9E4F52BE52BD3
:1005E300C395535027E52AF47022C2A9745B252BC7
:1005F300F8E654417010E52B655A600A852B2A747E
:100603005B252BF87640D2A9052B80D2E52AF4701E
:1006130027C2A9E55AF4600E855A2AAF5A745B2F94
:10062300F87640755AFFD2A9E52AB4FF0B9001DC96
:10063300E0600214F07F09229001841202C2E94AA9
:100643004B700302072D9001841202C212015DFF59
:10065300D394035003EF7012745B252AF8E4F690E9
:1006630001E9E0600214F07F0B2212015DF52C1208
:100673002432E4FBFAF9F8C312022D7003020730A7
:1006830012242C74FFFBFAF9F8C312022D70030233
:100693000730E529D39410400B9001EAE06002147F
:1006A300F07F0B2275F015E52A9000241202B67430
:1006B300A6F0E52924FAFFE434FFFEC006C00712C2
:1006C30024412425F9740012241FD007D0061201F7
:1006D3003712242C90001F12240B1202AA12242674
:1006E300122438FAE924FAF9EA34FFFAC002C00105
:1006F3001224412423F9740035F0FA122438A80196
:10070300FC7D01D001D0027F061201377405252933
:10071300F529FF75F015E52A9000221202B6E5824D
:100723002F122417E04480F0801D752C03AF297E1F
:1007330000C006C0071224412424F9740012241FA8
:10074300D007D00612013790001E12240B1202921A
:100753008F308E2F8D2E8C2DE4FFFE7D807CFF123B
:1007630024485016122441241EF9740035F0FA7BF4
:1007730001122438FA122A4E80487B007A0079311C
:100783001226FDE5345480FBE533FAE532F9E53111
:10079300F8E5305480FFE52FFEE52EFDE52DFCC383
:1007A30012022D700B74FFFFFEFDFC122448701221
:1007B300745B252AF8E4F69001EBE0600214F07F05
:1007C3001022748D252AF8A62C746F252AF8E4F6D6
:1007D3007479252AF8E4F67465252AF8A62975F0B4
:1007E30015E52A900022122410E0FF742F252AF524
:1007F30082E43401F583EFF0745B252AF8748046B4
:10080300F67F0022122807AF8285834C8F4DE4F5D3
:1008130045F546F5431555E55AB4FF037F0422AF6A
:1008230055EFC43354E02494F582E43401AF82F5E8
:100833004A8F4BAF55744E2FF8E6F54412281370C8
:1008430002054A12281AF5201228137002054A12CB
:10085300281AF52115441544E544D39400401F128A
:1008630028137002054A12281AF5221544E544D3C9
:1008730094004005E4F547800875470280037547F7
:1008830001E5471460391460522402600302091021
:10089300300C29200D26301023201120A200300116
:1008A30001B35018A204300501B35010A208300957
:1008B30001B35008A214301501B340547F0B22201A
:1008C3000C03200D037F0A22A200300101B350085C
:1008D300A204300501B340387F0B222010032011FE
:1008E300037F0A22300C23200D20A200300101B324
:1008F3005018A204300501B35010A208300901B307
:100903005008A214301501B340067F0B227F0B223F
:10091300A2039204A2029203A2019202A20F9201E5
:10092300A20E9200054DE54DAE4C7002054C14F538
:10093300828E83E520F00543E54764016053E5209B
:100943002545F545E54665209017CC93F546E52109
:10095300C454F0F521A217920CA216920BA2159281
:100963000AA2139209A2129208054DE54DAE4C70EE
:1009730002054C14F5828E83E521F00543E54770AB
:1009830010E5212545F545E54665219017CC93F5FE
:1009930046E544D39400400302083FE543941540E1
:1009A30008122821E4F67F1022122807E0C4540F0E
:1009B300F548122807E0F549E54D154D7002154C31
:1009C30014F582854C83E0F547E54864066018E535
:1009D3004864026012E5486401600CE54864056000
:1009E30006E549647F7028E54754F02545F545C47D
:1009F300540F2545F545E547540FFFE545540F6F63
:100A030060037F072243541012282176018029E5D1
:100A13004D154D7002154C14F582854C83E020E78B
:100A230009E5456547600C7F0722E5466547600396
:100A33007F07221228217611AF5A746F2FF8E4F63C
:100A4300AF5A74832FF87601AF5574512FF8E6FF30
:100A5300AE5A74392EF582E43401F583EFF0AF5AC0
:100A630074652FF8A643435420755AFF7F0022E490
:100A7300F545E545C395534003020CAA745B254530
:100A8300F8E620E003020CA5745B2545F8E630E4A4
:100A930003020CA575F015E5459000241202B6AFCC
:100AA300828583438F44E0FF647F6003020BA1745C
:100AB300652545F8760BE54424091221A2E4F0E507
:100AC3004424091221A2E0F54612219E1221DD24BD
:100AD300071221A21221D424081221A2EEF0E54428
:100AE30024081221A21221E524051221A2E0C454F4
:100AF300F0FE12219E1221D424071221A2EEF0E56A
:100B03004424071221A21221E524041221A2122156
:100B1300DD24051221A2E0C4540F4EFE12219EEEE5
:100B230012219D1221E524051221A274FEF0E54451
:100B330024051221A21221BDA3A3A31221DD2404A3
:100B43001221A21221D424041221A2EEF0E544249E
:100B5300041221A21221BDA3A3E0C454F0FE12216A
:100B6300C2A3A3A3E0C4540F4E1221AAA3E0C4540A
:100B7300F0FE1221C2A3A3E0C4540F4E1221C2A35C
:100B8300A3F01221C21221BBA3E0C4540FF012211F
:100B9300C21221BC74301221ED240A020C92EFC45C
:100BA300540FF54824FE601424FD7003020C38141E
:100BB3007003020C3824056003020C9C1221F6B466
:100BC30001047F0080027F10122191E01221C0A353
:100BD300A3E0C454F0FF1221C2A31221C9240512B9
:100BE30021A2EFF0E54424051221A21221BDA3E0C6
:100BF300C454F0FF1221C21221C924041221A2EF0E
:100C0300F0E54424041221A21221BDA3E0C4540F31
:100C13001221AAA3A3E4F01221C21221BBE0540FB4
:100C2300C454F0A3F01221C21221BC74F61221EDB8
:100C33002407020C921221F6B405047F2080027F60
:100C430030122191E0F546754705E5442547122109
:100C5300A2E58224FFF582E58334FFF583E0C454E3
:100C6300F0FFE54425471221A2E0FE1221CC2547DF
:100C73001221A2EFF0E54425471221A2E02546F513
:100C830046D547C61221C274F6F01221EF2407F5A8
:100C930082E43583F583E546F0745B2545F87410EB
:100CA30046F60545020A755354EF2290018112025C
:100CB300E2900187120036FFFFFFFFE4F529E529E3
:100CC300C395534003020EDEA2AF9230C2AF745BF2
:100CD3002529F8E6FFA23092AF5431FEBE3103D38B
:100CE3008001C34003020ED9EF30E203020ED93074
:100CF300E103020ED930400E746F2529F8E6C3953F
:100D0300505003020ED9900227E0600BAF29121551
:100D1300B7EF7003020ECE75F015E529900024128B
:100D230002B6E064A66003020E4B12277324F4F5A7
:100D33002AD39409400612277A7F06221227842495
:100D430026F9740035F0FA7B017E00E9252AF9EED5
:100D53003AFA78877C017D017F04120137E52A2462
:100D630001FFE433FEC006C0071227842425F9746B
:100D73000035F0FA7B01C003C002C00112276AA844
:100D830001AC02AD03D001D002D003D007D00612CC
:100D93000137122784242AF9740035F0FA7B01AF56
:100DA3002A7E00E92FF9EE3AFAC003C002C001EF30
:100DB3002401FFEE33FE12276AE92FF9EA3EA80168
:100DC300FCAD03D001D002D0037E007F0512277053
:100DD30024FB122769900015EF1201E8AF0190017F
:100DE3008BEAF0A3EFF0122773FF75F015E5299056
:100DF30000221202B6E5822FF582E43583F583E003
:100E030030E703D38001C39231E4FFFE12276A90D7
:100E1300001512017614FDEEC39D501D90018BE465
:100E230075F00130310B12278B6F9017CC93FF8035
:100E33000512278B2FFF0E80D390018BE0FCA3E0DC
:100E4300F5828C83EFF0803D122773FF7E00C0068E
:100E5300C0071227842424F9740035F0FA7B01C0FB
:100E630003C002C00112276AA801AC02AD03D0017E
:100E7300D002D003D007D006122770122769900042
:100E830015EF1201E89001841202C2E94A4B604057
:100E930074392529F582E43401F583E0FF90018458
:100EA3001202C2900005EF1201E89001871202922C
:100EB30090000112026EA2AF9230C2AF7483252953
:100EC300F8E61201D6A23092AF800512277A800687
:100ED30012277A7F00220529020CC17F0622900186
:100EE3008E1202E2900191EDF0C236C237E4F54A68
:100EF300F54B1228A0EF600C900193E0D3940040CF
:100F0300037F002275A401E4F5B6900192E020E787
:100F130003C38001D39237122A4460037F002275F2
:100F2300B4FAE5CEB4340B122A4460037F00227571
:100F3300B4AA122A4460037F002275B4A9E4F549D8
:100F4300900191E0FFE549C39F4003021015EF14A0
:100F5300B54905854A238033900191E024FEB549C4
:100F630006A3E0F523800F90018EE475F0011205CE
:100F73005A12015DF523203708E523254AF54A80F7
:100F83000AE54A65239017CC93F54A303651A21FE0
:100F93009223A21E9222A21D9221A21DB39220A2ED
:100FA3001C921FA21B921EA21A921DA21AB3921C7C
:100FB300A219921BA218921AC219D218122A4460BB
:100FC300037F00228524B4900191E014B54908E51C
:100FD3002354FC4402F523122A44602C7F0022751B
:100FE3002410A2189226A2199227A21AB39218A229
:100FF3001A9219A21B921AA21C921BA21DB3921C35
:10100300122A4460037F00228523B4B236054902C5
:101013000F43900191E030E012D225C224122A44FA
:1010230060037F0022E524440FF5B4900191E0FFB3
:10103300C313FEEF2E2402F54BE5CEB43402054B69
:10104300900191E030E002054BAD4B7408FFFE12B6
:1010530029DF122A4460037F0022AF4B12261D535F
:10106300DC7F302B1253DEFBAFD4EF5480F5D4700A
:10107300F753DEF775A4FFD22C909F1EE0F59FA3D4
:10108300E0F59E43DE2043DE107F01227543FF75AA
:10109300442875465B855347755AFF745B2547F5AE
:1010A30046746F2547F548154715461548A846E683
:1010B300FF5441700302116BA848E6C395505003D7
:1010C30006800BEF30E207A846E4F685475AA846A8
:1010D300E654C0FFBFC003D38001C3400302116EB7
:1010E30074792547F8E6F545A848E6C39545407B5E
:1010F300E545C39428400C74792547F8E4F6A848DD
:10110300F6F545E545C3940A500FA848E6C3940A8B
:1011130040028039C3740A803CE545C39414500FE0
:10112300A848E6C3941440028023C374148026E5C0
:1011330045C3941E500FA848E6C3941E4002800D79
:10114300C3741E8010A848E6C394284005E4F545FF
:101153008007C374289545F545E545C39544500B71
:10116300854743854544800385475AE547D3940023
:1011730040030210AAE55314B55A03755AFFE54319
:10118300F47003021212302C02C32290021DE0609D
:1011930002C322E544700E746F2543F8E6C3942816
:1011A300500375440AE54375F015A42424F974002B
:1011B30035F0FA7B0174652543F8E6FD12000E90C5
:1011C3000192F0A3E544F0120EE1EF64016019749B
:1011D3008D2543F8E6B4030E12000E540F70077406
:1011E3006F2543F8E4F6C322748D2543F816748DF6
:1011F3002543F8E6700B745B2543F8743F56F6807D
:101203000CAF4312220074792543F8A60FD322C3EF
:10121300225F5F5F5F5F5F5F5C554F48423C352FE6
:101223002DEFB40203021342700302131A75CE3476
:1012330075D70575BC8075C00075C10B75D8007571
:10124300D90075DA0075DB0075C20175C10E75C270
:101253000175C10F75C20175C11175C20175C10A4E
:1012630075D80175C20175C10975D82175C201759B
:10127300C10D75D83875C20175C10C75C20175C031
:101283000875C10975D84B75D93C75DA3C75DB0116
:1012930075C20175C00475D87875D9F075DA08750B
:1012A300DB9075C20175C10175D80075D90075DA77
:1012B3000075DB0075C20175C00875C20175C00CED
:1012C30075C20175C01075C20175C00875C1167568
:1012D300C20175C00C75C20175C00875C11975C20C
:1012E3000175C11875D8E375D90175C20175C004BC
:1012F30075D82875D90575C20175C11675D80075DD
:10130300D90075DA0175C20175C11975D8E075D9AF
:10131300B075DA5175C20175C00075C11875D80171
:1013230075D90075DA0075DB0075C20175C11975D1
:10133300C20175C11675C20175C10175C20122755D
:10134300C00475C11775D8D875D99A75DA9C75DB41
:101353008975C20175C00875D82075D90075DA0082
:1013630075DB0075C20175C00075D80175C2012215
:10137300E555C39402400C9001E7E0700302149416
:1013830014F0227F3C7E12122999AD55ED25E024FD
:1013930056F8A60E08A60F122656AE5574512EF80F
:1013A300A60F85B336E53675F00384AFF0BF0102AF
:1013B3001536E536D394204003021494E536C394DE
:1013C3000650030214941229FFAF82FEE4F5B60F10
:1013D300EFAC0E70010E14F5828C83E5B5F0E5B623
:1013E300C3953640EA9001D6E536F08F828E83E5C9
:1013F3008224FFF582E58334FFF583E0B4FF021511
:1014030036E536C3941250141229FFF583E0FEA388
:10141300E054F064907003EE64A26075AF55744EAF
:101423002FF8A636055590022BE030E15DAF55EF5E
:10143300C43354E02474F582E43401F583E0FEA35D
:10144300E054F064D07003EE64A2703E78A2E6F438
:10145300702DE55AF47018FFE55314FEEFC39E5048
:101463000E745B2FF8E670048F5A80030F80E978BF
:10147300A2A65A120807EF601178A276FF800B1517
:10148300559001EEE0600A14F0229001D5E0455535
:10149300F022E4F543E543C3955340030215B31229
:1014A300255F20E0030215AE12255F30E503021528
:1014B300AE74652543F8E6F545C39408500A745B9A
:1014C3002543F8E4F60215AEE4F544E544C3955329
:1014D300400302158D745B2544F8E620E0030215F2
:1014E30088745B2544F8E620E503021588746F25AC
:1014F30044F8E6C39550400302158874652544F803
:10150300E545666003021588E54524FEF582E4346B
:10151300FFF583E543122553FA7B01C009E5441225
:101523002553A809FC7D01D009AE83AF821205368D
:10153300EF7052122523E0F546E543122525E0F529
:101543004754F0FFE54654F06F703A202D0CE54701
:10155300540FFFE546540F6F702B74832544F80630
:1015630012253AE0D39F401412253AEFF075F01597
:10157300E543122528E0FF122523EFF0745B254392
:10158300F8E4F6800505440214CEAD44AF43122AB5
:101593005712255F6015745B2543F8742046F69057
:1015A300022BE030E005AF431219AE054302149855
:1015B3005354DF2290018DEFF0E0FF2465F8E6FE3F
:1015C30075F015EF90001E1202B6E5822EF582E447
:1015D3003583AF82F52C8F2DF5831202928F318ED6
:1015E300308D2F8C2EE4F52B900226E0FFE52BC3E4
:1015F3009F40030216B61227F220E6030216B1C279
:10160300321227F2540714601C14605124027068CC
:101613001227E4AB31AA30A92FA82EC312022D70D2
:1016230059D23280551227E490018DE0FE75F015F2
:101633001227FFB50704D232804075F015EE12274A
:10164300FF64A670351227E490018DE075F01590C4
:1016530000251202B6E06F7021D232801D1227E4FA
:1016630090018DE02439F582E43401F583E0C39FD2
:10167300E49E4006D2328002D23230320E1227F27A
:1016830030E704D2328010C232800C1227F230E7E6
:1016930004C2328002D232900228E0FE7006303259
:1016A300037F0122EEB401062032037F0022052BC3
:1016B3000215EB900228E0B401037F01227F002290
:1016C3009001811202E2122980C413540790018908
:1016D300F0900003120176FF900188F0E4900187F7
:1016E300F0EFD394095011A3E024FBF0E0FF7D0158
:1016F300122884900187EFF0900187E06008900141
:1017030089E06407703912297A541F1229739000F3
:1017130015EF1201E812297A541FFF7E00E9240312
:10172300F9E43AFAC003C002C001122974A801AC5B
:1017330002AD03D001D002D0031201370217C990C2
:101743000187E0122973EF1201D690018A7404F025
:10175300A37401F012297490001574011201E8902A
:10176300018C7402F090018CE0FDC3940B504C90FB
:101773000188E0FF122884EF60331229749000156A
:1017830074011201A39001811202C290018AE0F553
:101793008275830012017612297390018BE0F58222
:1017A300758300EF1201E890018BE004F090018C47
:1017B300E004F090018AE004F080AA1229749000FA
:1017C3001574011201A37F002200070E091C1B12CE
:1017D30015383F363124232A2D70777E796C6B625E
:1017E30065484F464154535A5DE0E7EEE9FCFBF28E
:1017F300F5D8DFD6D1C4C3CACD90979E998C8B827E
:1018030085A8AFA6A1B4B3BABDC7C0C9CEDBDCD52A
:10181300D2FFF8F1F6E3E4EDEAB7B0B9BEABACA59D
:10182300A28F88818693949D9A2720292E3B3C354D
:10183300321F18111603040D0A5750595E4B4C45BD
:10184300426F68616673747D7A898E878095929BF7
:101853009CB1B6BFB8ADAAA3A4F9FEF7F0E5E2EBDD
:10186300ECC1C6CFC8DDDAD3D4696E676075727B0D
:101873007C51565F584D4A4344191E171005020BFD
:101883000C21262F283D3A33344E49404752555CAC
:101893005B7671787F6A6D64633E39303722252C1D
:1018A3002B0601080F1A1D1413AEA9A0A7B2B5BCCD
:1018B300BB9691989F8A8D8483DED9D0D7C2C5CC3D
:1018C300CBE6E1E8EFFAFDF4F39001811202E29036
:1018D300018A1202E212015DFF122838541F12011D
:1018E300D61228F0900188EFF064057056900181BC
:1018F3001202C2900015120176FF900187F07E005C
:101903009001841202C2E92403F9E43AA801FCAD70
:101913000390018A1202C2120137900187E0FF543B
:101923001FFE12283854E04E1201D6EF2402FFE4C2
:1019330033FE9001841202C28F828E83E41201E887
:101943000219AB9001897404F09001877402F0903E
:101953000187E0FDC3940B5032A3E0FF122884EF0C
:10196300601490018AE475F0011202CB12015DFF4D
:10197300122828EF8004122828E41201E890018736
:10198300E004F0900189E004F080C4122828E412F6
:1019930001E8900188E024059000031201E8122871
:1019A3003E54E0440B1201D67F002290018EEFF0EB
:1019B300E0FF245BF8E630E303021A8F74652FF827
:1019C300E6FE75F015EF9000221202B6E5822EF5C1
:1019D30082E43583F583E0F549540FF54890022CF2
:1019E300E0B4010AE548D394004003021A8F900241
:1019F3002CE0B4020AE548D394014003021A8F9005
:101A0300018EE075F015A4241EF9740035F0FA7BFD
:101A130001E02465F8E67E0029F9EE3AFA12291E60
:101A2300EF706990018EE02465F8E675F009A4FF74
:101A3300E5F0C313FEEF132404FFE43EFEE4FCFDD4
:101A430090020012029E1202207B447A9579087854
:101A530000C312022D4035E54954F0FFE548044F19
:101A6300FE90018EE0FF242FF582E43401F583EE2E
:101A7300F0748D2FF8760312220090018EE0FE247D
:101A830079F8A60F745B2EF874C046F622C0E0C046
:101A9300F0C083C082C0D075D008A2AF9233D2AF5A
:101AA300E5A47003021B4DE5A430E75D75A48075C2
:101AB300A41075A44075A4207F0C7E091229ACBF25
:101AC300620653DEFB43DE04D22875C00875C102EB
:101AD30075D80075D90075DA0075DBFC75C2017520
:101AE300C00C75D80175DB0075C20175C00075C2E5
:101AF3000175C00875D80075C20175C00C75C201A7
:101B030075C00075D80175C201E5A430E40375A45E
:101B130010E5A430E60375A440E5A430E00375A402
:101B230001E5A430E10375A402E5A430E20375A442
:101B330004E5A430E30375A408E5A420E503021A31
:101B4300A375A4201225E2021AA3A23392AFD0D028
:101B5300D082D083D0F0D0E0329001811202E23003
:101B63003803021C137B007A007929122566900141
:101B7300811202C2900220E0FF04F08F827583007D
:101B8300E5291201E8900221E014601A14603B1465
:101B93006050240370C9E529B4A50890022174019B
:101BA300F080BCE4801EE529B45A08900221740237
:101BB300F080ACE529B4A50790022174018004E408
:101BC300900221F0900220F08095E529541F240310
:101BD30090021EF0A3E02529F09002217403F00285
:101BE3001B6290021EE0FF900220E0B50718E4F0AC
:101BF300A3F090021FE065296005E4F07F0722E46B
:101C030090021FF0FF2290021FE02529F0021B62C1
:101C13007F0622C0E0C0F0C083C082C0D075D01060
:101C230030983D85991CC298203808799EE7789CA6
:101C3300666025789EE6062402F582E43400F58387
:101C4300E51CF0E6FF789AE6FEEF8EF084789EA618
:101C5300F0C23878980680089001D7E0600214F04B
:101C630030993AC2997899760420392F789DE606FF
:101C730024F6F582E43400F583E0F599E6FF789BDA
:101C8300E6FEEF8EF084789DA6F0789706799DE7BF
:101C9300789F667002D239D23A8002C23AE51C6557
:101CA30099600D20980A9001D8E0600214F0D29850
:101CB300D0D0D082D083D0F0D0E032C0E0C0F0C02A
:101CC30083C082C0D075D008A2AF9235D2AFD23DC7
:101CD3009001FEE0D394004003E014F0E5FB30E113
:101CE3006875FB02AF1BAE1AAD19AC18EF2401FFE8
:101CF300E43EFEE43DFDE43C8F1B8E1A8D19F5187E
:101D0300C2AF303A10789916E6700A9001D9E060B4
:101D13000214F0D299D2AF302A2F12108F402AE545
:101D230055D3940040111208078F42E542601A9080
:101D330001D47401F08012E55430E405120A728074
:101D430008E55430E503121495A23592AFD0D0D0F4
:101D530082D083D0F0D0E032EF14603F14605D2472
:101D6300026003021DF09001FEE060037F01227F09
:101D7300087E051229ACEF30E0037F01227F047E49
:101D8300051229077B007A05790412293475D408D2
:101D9300303E5D9001FE741EF080557B007A04791D
:101DA300107F017E007D007C001229347F107E04A9
:101DB300122907EF5401FFEF603680F07F0C7E0697
:101DC3001229ACEF54FEFD7F0C7E061229DF7F0C37
:101DD3007E061229ACEF4401FD7F0C7E061229DF3B
:101DE3007F107E061229ACEF30E20580F37F0B22D1
:101DF3007F00229001811202E2E4F52AE92402F92C
:101E0300E43AAF0178A0F608A60712000390000297
:101E1300120176541F2402F5292401FFE433FE78CE
:101E230097E6C39FEE6480F8748098500B9001DAB4
:101E3300E0600214F07F092274A51201D612000398
:101E4300900001745A1201E8752B02E52BC3952902
:101E5300501978A00806E618860670010614F58264
:101E63008E83E0252AF52A052B80E078A0E6FE087C
:101E7300E6F5828E83E52AF0120003E52904FD12BC
:101E8300249A2290000B120176781DF690000C1212
:101E93000176781EF690000D120176781FF6781DF4
:101EA300E6F5C808E6F5E8900001120176F5A3907F
:101EB3000003120176F5A1900002120176F5BD90A0
:101EC3000004120176F5BE900005120176F5AB9081
:101ED3000007120176F5A9900008120176F5BF906C
:101EE3000006120176F5CC900009120176FFF5D3B6
:101EF300781FE6F5F890000A120176F5D112015D1C
:101F0300F5CF8FD3E490021DF075AE07227581A241
:101F1300122A0E021F5402294AE493A3F8E493A35E
:101F23004003F68001F208DFF48029E493A3F85418
:101F330007240CC8C333C4540F4420C8834004F49B
:101F430056800146F6DFE4800B01020408102040AE
:101F530080901F99E47E019360BCA3FF543F30E55A
:101F630009541FFEE493A360010ECF54C025E06023
:101F7300A840B8E493A3FAE493A3F8E493A3C8C5F1
:101F830082C8CAC583CAF0A3C8C582C8CAC583CAE2
:101F9300DFE9DEE780BEC14041021E0041021F00AF
:101FA3004102200041022100410226004102280093
:101FB30041022700410218004102190041021A920E
:101FC30042021B0000C141C13E4101FE0001550018
:101FD300C12BC12CC129C12EC128C12FC1ADC12A1A
:101FE3004101D5005901FF0000000000000000007E
:101FF30000000000000000000000000000000000DE
:10200300C13A41022B0001A2FF43012C6722224265
:102013000000040141022C0100900143EFF0A3ED05
:10202300F0A3749FF0A3E4F01229EF900143E0F5CD
:1020330053A3E0F550E4F55AF554A3E0FEA3E024DE
:1020430065F582E43EF583E0B408057F011225A51A
:10205300E4F529E529C39553503B74832529F8E416
:10206300F6748D2529F8E4F6746F2529F8E4F674DF
:10207300652529F8E4F6745B2529F8E4F6747925D7
:1020830029F8E4F674392529F582E43401F583E46B
:10209300F0052980BED22A22C0D075D0089001FF56
:1020A300E0606F900209120292EF2401FFE43E12F6
:1020B30027559002091202AA7F407E7E7D057C008F
:1020C30090020912029ED312022D40469002091279
:1020D300003600000000900208E0B40A04E4F08037
:1020E30006900208E004F012273AE0FF7E007C0825
:1020F3007D981203839002221202AA9002001227F3
:102103005D9002001202AA90020412275D12273486
:10211300E4F0D0D022900143EFF053DCFE7F0C7E3D
:10212300061229ACEF54FEFD7F0C7E061229DF4315
:10213300DC807F0212122443D501E5DC54FE440106
:10214300F5DC909F22E0FEA3E0FF900143E0FDEF6A
:10215300C8EDC8088005CEC313CE13D8F924FFFFFA
:10216300EE34FFFEE4FCFDFB7A0679081229347F86
:10217300107E061229ACEF20E0F57D037F0C7E066E
:102183001229DF900229E5D4F0A3E5DDF022E5442E
:102193002406F582E43543F583EFF0E5442406F5A0
:1021A30082E43543F58322854482854383A3A3A335
:1021B300F0854482854383A3A3A3E02546F54685A2
:1021C300448285438322A3A3E0C4540F4FFFE54415
:1021D30022E0C4540F4EFEE54422E0C454F0FEE571
:1021E3004422E02546F546E54422F0E02546F5463F
:1021F300E5822274652545F87608E54822AEBA746F
:102203008D2FF8E624FE602D14703D745B2FF8E6E5
:1022130030E01F742F2FF582E43401F583E0540F6F
:10222300FDEEBD01065407240AFF2275F00A84AFB0
:10223300F0227F0022745B2FF8E630E005EE5407AE
:10224300801EEE540704FF22745B2FF8E630E0078C
:10225300EE54072415FF22AF0EEE75F01284E5F05D
:102263002414FF22C0E0C083C082C0D075D008A26E
:10227300AF9234D2AFE5A630E10B75A6029001E32D
:10228300E0600214F0E5A630E017D22F75A60153E3
:10229300DEEFAFD4EF5480F5D470F753DEDF75A6CD
:1022A30003C22C302B12909F1CE0F59FA3E0F59EF8
:1022B30043DE0843DE04800343DC80A23492AFD0C4
:1022C300D0D082D083D0E032A2AF923CC2AFA23B47
:1022D300922B302C07A23C92AF7F1622303B1C532B
:1022E300DC7F122986909F1CE0FF8F9F909F1DE04B
:1022F300FF8F9E43DE0843DE04801843DC8053DEF9
:10230300FBAFD47E80EF5EFF8FD4EF70F453DEF724
:1023130075A4FFA23C92AF7F00229001431202E218
:10232300900146EDF0F47039122A38900001120141
:1023330076789AF6900002120176789BF675985299
:102343001229BDC23AD238D239E4789EF6789CF687
:10235300789FF6789DF6789BE67897F6E47898F67A
:1023630022900146E07003122A382290017B740305
:10237300F0A3120036000000007B017A01795912A4
:102383001B5CEF70357B0190018404F0A37401F0B2
:10239300A37443F07A0179591216C3EF701C9001AC
:1023A300847401F0A37401F0A3747BF07B017A01C0
:1023B3007943120571EF640960E4221228BCEF60CF
:1023C3004675DDFF75D4FF7F007E06122907E4FB07
:1023D300FAF9F8C312022D601343D50843AD01AFD8
:1023E300DC43DC2443D50C8FDC53D5F753DCFE7F71
:1023F3000C7E061229ACEF54FEFD7F0C7E061229DB
:10240300DF75DD0143D5022275F015E52A1202B608
:10241300E5822529F582E43583F5832235F0A80189
:10242300FC7D019001810202C29001841202C290DC
:10243300000102023E7E00E92529F9EE3A22E52A4F
:1024430075F015A422AB30AA2FA92EA82DC3020222
:102453002D9001847401F0A37401F0A3747BF07BCD
:10246300017A017943120CAEEF702B7F011227958D
:102473009001847401F0A37401F0A37459F07B01FB
:102483007A0179431218CCEF700C7B017A017959E8
:10249300121DF6EF70F4229001841202E29001877C
:1024A300EDF07897E6C39D500B9001DAE0600214DB
:1024B300F07F0922E4F52C900187E0FFE52CC39F10
:1024C30050179001841202C2852C82758300120179
:1024D30076FF1224DF052C80DE7F00227897E670DA
:1024E3000B9001DAE0600214F07F0922A2AF923070
:1024F300C2AF789FE624F6F582E43400F583EFF06B
:1025030006E6FF789BE6FEEF8EF084789FA6F02028
:102513003A02D299C239789716A23092AF7F00223D
:10252300E54475F0159000221202B6E5822545F5C3
:1025330082E43583F5832274392543F582E434013B
:10254300F583E0FF74392544F582E43401F58322F1
:1025530075F015A42424F9740035F022745B254327
:10256300F8E6223038037F0422A2AF9230C2AF785C
:102573009CE62402F582E43400F583E01201D606DA
:10258300E6FF789AE6FEEF8EF084789CA6F0799CBD
:10259300E7789E667002D238789816A23092AF7FA1
:1025A3000022AB07E4900208F012273AE4F090020D
:1025B30008E004F0E0B40BF19002001200360000D2
:1025C300000090020412003600000000E4900208AC
:1025D300F0A3120036000000009001FFEBF022D2BE
:1025E3002E303E03021373E4F555121373E4F55AC8
:1025F300E5556025120807EF701F202C0343DC808C
:1026030053DEFBAFD4EF5480F5D470F753DEF77588
:10261300A4FF120A72785B763122C0D075D008907D
:1026230001FFE0602B90020012029EE4FCFDFE120B
:1026330002209002001202AA1227489002001202FE
:102643009ED312022D4009122748122734E004F0CA
:10265300D0D0227810EEF9547F7005CF4403780868
:1026630018CFD333CF3350F8FEE890121493FFE919
:1026730030E705EFC3940FFFEE30E7031F1F1F3052
:10268300E6011FEFC3942950027F29220AF60200B4
:10269300000001010101030AD5020000000101014C
:1026A30001030AA50202020201010101030AA302B6
:1026B30000000001010101030AA402020202010158
:1026C3000101037B007A007929122A4EAE2BAF2C2D
:1026D300E52A2FFFE529909F1E120026909F1CE0FC
:1026E300FCA3E02FFFEC909F28120026A3E06EFED0
:1026F300A3E06FFF12295FD2AF227535087432252C
:1027030035F582E4349FF583E0F4600FE535D39427
:102713002C500874042535F53580E274F82535F519
:10272300352433FFE4349F8F82F583120292020330
:10273300199002041202AA900208E0240DF582E423
:102743003402F58322900204120292EF2498FFEEE2
:102753003408FEE43DFDE43CFC2212029290022286
:1027630012029E0202EBFF9001810202C2120137A4
:1027730074652529F8E622745B2529F8740446F666
:1027830022E52975F015A42212020A85F082F58349
:10279300E022EFC3940B5009781DE66FF6E6F5C807
:1027A30022EFC394C9EF500A24F6781E66F6E6F5C5
:1027B300E8222438781F66F6E6F5F82275F43E75AC
:1027C300F57FE5FA549F4440F5FA43FA8043FC024F
:1027D30043F901E4F51BF51AF519F518D2A9D23E10
:1027E3002275F004E52B90011C1202B602029274CA
:1027F30018252BF582E43401F583E022900024129E
:1028030002B6E022AF5A75F015EF9000240202B62B
:10281300054BE54BAE4A2214F5828E83E022AF5A74
:10282300745B2FF8229001841202C2900189E0F5B3
:1028330082758300229001841202C2E92402F9E422
:102843003AFA02015D7F011212247D647F0A12208D
:102853001C7B017A01792C7DFF12231D1227BF12E5
:1028630026C60223BEE056455253494F4E0100048B
:102873000041524144494F544F53455249414C0042
:10288300E0EF75F00BA4248FF582E43426F583E59D
:10289300822DF582E43583F583E493FF22202B0315
:1028A3007F00227F0C7E091229998E4C8F4DEF6495
:1028B3001160037F01227F00227F637E4F7D6E7C48
:1028C3004590A04412035BC312022D70047F018064
:1028D300027F0022E056455253494F4E020202093D
:1028E3004C454F333030304941504900E0AE07E4A6
:1028F300FCAF047D01122884EF6E60050CECB40577
:10290300F0AF0422A2AFC2AF8FC08EC175C2000068
:10291300AFC4AEC5ADC6ACC792AF221202F990A048
:102923004012035BC312022D70047F0180027F00FB
:1029330022A2AFC2AF89C08AC18FD88ED98DDA8C5B
:10294300DB75C20192AF22122848D23B1222CBE49C
:10295300FF121D5B12245412236E80F3CDEFCDCCF6
:10296300EECCED4C7003FC7D01ECF5BBEDF5BA222A
:10297300FF9001840202C29001811202C290000200
:10298300020176C22EC22875A4FFE4F5A543A52053
:1029930043A580D2AB22A2AFC2AF8FC08EC175C296
:1029A3000000AFC4AEC592AF22A2AFC2AF8FC08E3C
:1029B300C175C20000AFC492AF22C299C29875B864
:1029C3001085991C78997604D2AC22E5A430E009ED
:1029D300EFD3940040037F01227F0022A2AFC2AF56
:1029E3008FC08EC18DD875C20192AF22C22F75A63A
:1029F300FFC22C43A70143A702D2AE22AF55EFC4B7
:102A03003354E02494F582E43401227F0312211825
:102A13007BFF7A2A791C021E8607000E0100C00381
:102A2300807F0400000000E0524144494F03012726
:102A330001030000E09001431202C212015DF59A06
:102A430022900193E0FF1229CEEF2290A0401203BF
:102A53004B02031990018EEFF0A3EDF022A22C227A
:012AFF006B6B
:00000001FF
